{
  "_format": "hh-sol-artifact-1",
  "contractName": "Kilimanjaro",
  "sourceName": "contracts/Kilimanjaro.sol",
  "abi": [
    {
      "inputs": [
        {
          "internalType": "address",
          "name": "_rewardsToken",
          "type": "address"
        }
      ],
      "stateMutability": "nonpayable",
      "type": "constructor"
    },
    {
      "anonymous": false,
      "inputs": [
        {
          "indexed": true,
          "internalType": "address",
          "name": "owner",
          "type": "address"
        },
        {
          "indexed": true,
          "internalType": "address",
          "name": "approved",
          "type": "address"
        },
        {
          "indexed": true,
          "internalType": "uint256",
          "name": "tokenId",
          "type": "uint256"
        }
      ],
      "name": "Approval",
      "type": "event"
    },
    {
      "anonymous": false,
      "inputs": [
        {
          "indexed": true,
          "internalType": "address",
          "name": "owner",
          "type": "address"
        },
        {
          "indexed": true,
          "internalType": "address",
          "name": "operator",
          "type": "address"
        },
        {
          "indexed": false,
          "internalType": "bool",
          "name": "approved",
          "type": "bool"
        }
      ],
      "name": "ApprovalForAll",
      "type": "event"
    },
    {
      "anonymous": false,
      "inputs": [
        {
          "indexed": false,
          "internalType": "uint256",
          "name": "id",
          "type": "uint256"
        },
        {
          "indexed": false,
          "internalType": "string",
          "name": "species",
          "type": "string"
        },
        {
          "indexed": false,
          "internalType": "string",
          "name": "datePlanted",
          "type": "string"
        },
        {
          "indexed": false,
          "internalType": "string",
          "name": "geoLocation",
          "type": "string"
        },
        {
          "indexed": false,
          "internalType": "string",
          "name": "longitude",
          "type": "string"
        },
        {
          "indexed": false,
          "internalType": "string",
          "name": "latitude",
          "type": "string"
        },
        {
          "indexed": false,
          "internalType": "uint256",
          "name": "CO2Credit",
          "type": "uint256"
        }
      ],
      "name": "NewTree",
      "type": "event"
    },
    {
      "anonymous": false,
      "inputs": [
        {
          "indexed": true,
          "internalType": "address",
          "name": "previousOwner",
          "type": "address"
        },
        {
          "indexed": true,
          "internalType": "address",
          "name": "newOwner",
          "type": "address"
        }
      ],
      "name": "OwnershipTransferred",
      "type": "event"
    },
    {
      "anonymous": false,
      "inputs": [
        {
          "indexed": false,
          "internalType": "address",
          "name": "account",
          "type": "address"
        }
      ],
      "name": "Paused",
      "type": "event"
    },
    {
      "anonymous": false,
      "inputs": [
        {
          "indexed": true,
          "internalType": "address",
          "name": "from",
          "type": "address"
        },
        {
          "indexed": true,
          "internalType": "address",
          "name": "to",
          "type": "address"
        },
        {
          "indexed": true,
          "internalType": "uint256",
          "name": "tokenId",
          "type": "uint256"
        }
      ],
      "name": "Transfer",
      "type": "event"
    },
    {
      "anonymous": false,
      "inputs": [
        {
          "indexed": false,
          "internalType": "address",
          "name": "account",
          "type": "address"
        }
      ],
      "name": "Unpaused",
      "type": "event"
    },
    {
      "inputs": [
        {
          "internalType": "address",
          "name": "to",
          "type": "address"
        },
        {
          "internalType": "uint256",
          "name": "tokenId",
          "type": "uint256"
        }
      ],
      "name": "approve",
      "outputs": [],
      "stateMutability": "nonpayable",
      "type": "function"
    },
    {
      "inputs": [
        {
          "internalType": "address",
          "name": "owner",
          "type": "address"
        }
      ],
      "name": "balanceOf",
      "outputs": [
        {
          "internalType": "uint256",
          "name": "",
          "type": "uint256"
        }
      ],
      "stateMutability": "view",
      "type": "function"
    },
    {
      "inputs": [
        {
          "internalType": "string",
          "name": "_species",
          "type": "string"
        },
        {
          "internalType": "string",
          "name": "tokenURI",
          "type": "string"
        },
        {
          "internalType": "string",
          "name": "_datePlanted",
          "type": "string"
        },
        {
          "internalType": "string",
          "name": "_geoLocation",
          "type": "string"
        },
        {
          "internalType": "string",
          "name": "longitude",
          "type": "string"
        },
        {
          "internalType": "string",
          "name": "latitude",
          "type": "string"
        }
      ],
      "name": "createTree",
      "outputs": [],
      "stateMutability": "nonpayable",
      "type": "function"
    },
    {
      "inputs": [
        {
          "internalType": "uint256",
          "name": "tokenId",
          "type": "uint256"
        }
      ],
      "name": "getApproved",
      "outputs": [
        {
          "internalType": "address",
          "name": "",
          "type": "address"
        }
      ],
      "stateMutability": "view",
      "type": "function"
    },
    {
      "inputs": [
        {
          "internalType": "address",
          "name": "_owner",
          "type": "address"
        }
      ],
      "name": "getOwnerTrees",
      "outputs": [
        {
          "components": [
            {
              "internalType": "uint256",
              "name": "id",
              "type": "uint256"
            },
            {
              "internalType": "string",
              "name": "species",
              "type": "string"
            },
            {
              "internalType": "string",
              "name": "datePlanted",
              "type": "string"
            },
            {
              "internalType": "string",
              "name": "geoLocation",
              "type": "string"
            },
            {
              "internalType": "string",
              "name": "longitude",
              "type": "string"
            },
            {
              "internalType": "string",
              "name": "latitude",
              "type": "string"
            },
            {
              "internalType": "uint256",
              "name": "CO2Credit",
              "type": "uint256"
            }
          ],
          "internalType": "struct Kilimanjaro.Tree[]",
          "name": "",
          "type": "tuple[]"
        }
      ],
      "stateMutability": "view",
      "type": "function"
    },
    {
      "inputs": [],
      "name": "getTrees",
      "outputs": [
        {
          "components": [
            {
              "internalType": "uint256",
              "name": "id",
              "type": "uint256"
            },
            {
              "internalType": "string",
              "name": "species",
              "type": "string"
            },
            {
              "internalType": "string",
              "name": "datePlanted",
              "type": "string"
            },
            {
              "internalType": "string",
              "name": "geoLocation",
              "type": "string"
            },
            {
              "internalType": "string",
              "name": "longitude",
              "type": "string"
            },
            {
              "internalType": "string",
              "name": "latitude",
              "type": "string"
            },
            {
              "internalType": "uint256",
              "name": "CO2Credit",
              "type": "uint256"
            }
          ],
          "internalType": "struct Kilimanjaro.Tree[]",
          "name": "",
          "type": "tuple[]"
        }
      ],
      "stateMutability": "view",
      "type": "function"
    },
    {
      "inputs": [
        {
          "internalType": "address",
          "name": "owner",
          "type": "address"
        },
        {
          "internalType": "address",
          "name": "operator",
          "type": "address"
        }
      ],
      "name": "isApprovedForAll",
      "outputs": [
        {
          "internalType": "bool",
          "name": "",
          "type": "bool"
        }
      ],
      "stateMutability": "view",
      "type": "function"
    },
    {
      "inputs": [],
      "name": "name",
      "outputs": [
        {
          "internalType": "string",
          "name": "",
          "type": "string"
        }
      ],
      "stateMutability": "view",
      "type": "function"
    },
    {
      "inputs": [],
      "name": "owner",
      "outputs": [
        {
          "internalType": "address",
          "name": "",
          "type": "address"
        }
      ],
      "stateMutability": "view",
      "type": "function"
    },
    {
      "inputs": [
        {
          "internalType": "uint256",
          "name": "tokenId",
          "type": "uint256"
        }
      ],
      "name": "ownerOf",
      "outputs": [
        {
          "internalType": "address",
          "name": "",
          "type": "address"
        }
      ],
      "stateMutability": "view",
      "type": "function"
    },
    {
      "inputs": [],
      "name": "pause",
      "outputs": [],
      "stateMutability": "nonpayable",
      "type": "function"
    },
    {
      "inputs": [],
      "name": "paused",
      "outputs": [
        {
          "internalType": "bool",
          "name": "",
          "type": "bool"
        }
      ],
      "stateMutability": "view",
      "type": "function"
    },
    {
      "inputs": [],
      "name": "renounceOwnership",
      "outputs": [],
      "stateMutability": "nonpayable",
      "type": "function"
    },
    {
      "inputs": [
        {
          "internalType": "address",
          "name": "farmer",
          "type": "address"
        },
        {
          "internalType": "uint256",
          "name": "wt",
          "type": "uint256"
        }
      ],
      "name": "reward",
      "outputs": [],
      "stateMutability": "nonpayable",
      "type": "function"
    },
    {
      "inputs": [],
      "name": "rewardsToken",
      "outputs": [
        {
          "internalType": "contract IERC20",
          "name": "",
          "type": "address"
        }
      ],
      "stateMutability": "view",
      "type": "function"
    },
    {
      "inputs": [
        {
          "internalType": "address",
          "name": "from",
          "type": "address"
        },
        {
          "internalType": "address",
          "name": "to",
          "type": "address"
        },
        {
          "internalType": "uint256",
          "name": "tokenId",
          "type": "uint256"
        }
      ],
      "name": "safeTransferFrom",
      "outputs": [],
      "stateMutability": "nonpayable",
      "type": "function"
    },
    {
      "inputs": [
        {
          "internalType": "address",
          "name": "from",
          "type": "address"
        },
        {
          "internalType": "address",
          "name": "to",
          "type": "address"
        },
        {
          "internalType": "uint256",
          "name": "tokenId",
          "type": "uint256"
        },
        {
          "internalType": "bytes",
          "name": "data",
          "type": "bytes"
        }
      ],
      "name": "safeTransferFrom",
      "outputs": [],
      "stateMutability": "nonpayable",
      "type": "function"
    },
    {
      "inputs": [
        {
          "internalType": "address",
          "name": "operator",
          "type": "address"
        },
        {
          "internalType": "bool",
          "name": "approved",
          "type": "bool"
        }
      ],
      "name": "setApprovalForAll",
      "outputs": [],
      "stateMutability": "nonpayable",
      "type": "function"
    },
    {
      "inputs": [
        {
          "internalType": "bytes4",
          "name": "interfaceId",
          "type": "bytes4"
        }
      ],
      "name": "supportsInterface",
      "outputs": [
        {
          "internalType": "bool",
          "name": "",
          "type": "bool"
        }
      ],
      "stateMutability": "view",
      "type": "function"
    },
    {
      "inputs": [],
      "name": "symbol",
      "outputs": [
        {
          "internalType": "string",
          "name": "",
          "type": "string"
        }
      ],
      "stateMutability": "view",
      "type": "function"
    },
    {
      "inputs": [
        {
          "internalType": "uint256",
          "name": "tokenId",
          "type": "uint256"
        }
      ],
      "name": "tokenURI",
      "outputs": [
        {
          "internalType": "string",
          "name": "",
          "type": "string"
        }
      ],
      "stateMutability": "view",
      "type": "function"
    },
    {
      "inputs": [
        {
          "internalType": "address",
          "name": "from",
          "type": "address"
        },
        {
          "internalType": "address",
          "name": "to",
          "type": "address"
        },
        {
          "internalType": "uint256",
          "name": "tokenId",
          "type": "uint256"
        }
      ],
      "name": "transferFrom",
      "outputs": [],
      "stateMutability": "nonpayable",
      "type": "function"
    },
    {
      "inputs": [
        {
          "internalType": "address",
          "name": "newOwner",
          "type": "address"
        }
      ],
      "name": "transferOwnership",
      "outputs": [],
      "stateMutability": "nonpayable",
      "type": "function"
    },
    {
      "inputs": [
        {
          "internalType": "uint256",
          "name": "",
          "type": "uint256"
        }
      ],
      "name": "trees",
      "outputs": [
        {
          "internalType": "uint256",
          "name": "id",
          "type": "uint256"
        },
        {
          "internalType": "string",
          "name": "species",
          "type": "string"
        },
        {
          "internalType": "string",
          "name": "datePlanted",
          "type": "string"
        },
        {
          "internalType": "string",
          "name": "geoLocation",
          "type": "string"
        },
        {
          "internalType": "string",
          "name": "longitude",
          "type": "string"
        },
        {
          "internalType": "string",
          "name": "latitude",
          "type": "string"
        },
        {
          "internalType": "uint256",
          "name": "CO2Credit",
          "type": "uint256"
        }
      ],
      "stateMutability": "view",
      "type": "function"
    },
    {
      "inputs": [],
      "name": "unpause",
      "outputs": [],
      "stateMutability": "nonpayable",
      "type": "function"
    }
  ],
  "bytecode": "0x60806040523480156200001157600080fd5b506040516200499238038062004992833981810160405281019062000037919062000342565b6040518060400160405280600b81526020017f4b696c696d616e6a61726f0000000000000000000000000000000000000000008152506040518060400160405280600381526020017f4b4c4d00000000000000000000000000000000000000000000000000000000008152508160009080519060200190620000bb92919062000228565b508060019080519060200190620000d492919062000228565b5050506000600760006101000a81548160ff02191690831515021790555062000112620001066200015a60201b60201c565b6200016260201b60201c565b80600960006101000a81548173ffffffffffffffffffffffffffffffffffffffff021916908373ffffffffffffffffffffffffffffffffffffffff16021790555050620003d9565b600033905090565b6000600760019054906101000a900473ffffffffffffffffffffffffffffffffffffffff16905081600760016101000a81548173ffffffffffffffffffffffffffffffffffffffff021916908373ffffffffffffffffffffffffffffffffffffffff1602179055508173ffffffffffffffffffffffffffffffffffffffff168173ffffffffffffffffffffffffffffffffffffffff167f8be0079c531659141344cd1fd0a4f28419497f9722a3daafe3b4186f6b6457e060405160405180910390a35050565b8280546200023690620003a3565b90600052602060002090601f0160209004810192826200025a5760008555620002a6565b82601f106200027557805160ff1916838001178555620002a6565b82800160010185558215620002a6579182015b82811115620002a557825182559160200191906001019062000288565b5b509050620002b59190620002b9565b5090565b5b80821115620002d4576000816000905550600101620002ba565b5090565b600080fd5b600073ffffffffffffffffffffffffffffffffffffffff82169050919050565b60006200030a82620002dd565b9050919050565b6200031c81620002fd565b81146200032857600080fd5b50565b6000815190506200033c8162000311565b92915050565b6000602082840312156200035b576200035a620002d8565b5b60006200036b848285016200032b565b91505092915050565b7f4e487b7100000000000000000000000000000000000000000000000000000000600052602260045260246000fd5b60006002820490506001821680620003bc57607f821691505b60208210811415620003d357620003d262000374565b5b50919050565b6145a980620003e96000396000f3fe608060405234801561001057600080fd5b50600436106101735760003560e01c8063715018a6116100de578063a22cb46511610097578063cc01e75a11610071578063cc01e75a14610428578063d1af0c7d14610446578063e985e9c514610464578063f2fde38b1461049457610173565b8063a22cb465146103c0578063b88d4fde146103dc578063c87b56dd146103f857610173565b8063715018a61461031e57806373940931146103285780637a508022146103445780638456cb591461037a5780638da5cb5b1461038457806395d89b41146103a257610173565b806335939c581161013057806335939c581461024a5780633f4ba83a1461027a57806342842e0e146102845780635c975abb146102a05780636352211e146102be57806370a08231146102ee57610173565b806301ffc9a71461017857806306fdde03146101a8578063081812fc146101c6578063095ea7b3146101f657806321670f221461021257806323b872dd1461022e575b600080fd5b610192600480360381019061018d9190612d7b565b6104b0565b60405161019f9190612dc3565b60405180910390f35b6101b0610592565b6040516101bd9190612e77565b60405180910390f35b6101e060048036038101906101db9190612ecf565b610624565b6040516101ed9190612f3d565b60405180910390f35b610210600480360381019061020b9190612f84565b61066a565b005b61022c60048036038101906102279190612f84565b610782565b005b61024860048036038101906102439190612fc4565b6107d3565b005b610264600480360381019061025f9190613017565b610833565b6040516102719190613217565b60405180910390f35b610282610c48565b005b61029e60048036038101906102999190612fc4565b610c5a565b005b6102a8610c7a565b6040516102b59190612dc3565b60405180910390f35b6102d860048036038101906102d39190612ecf565b610c91565b6040516102e59190612f3d565b60405180910390f35b61030860048036038101906103039190613017565b610d43565b6040516103159190613248565b60405180910390f35b610326610dfb565b005b610342600480360381019061033d9190613398565b610e0f565b005b61035e60048036038101906103599190612ecf565b610e37565b60405161037197969594939291906134cd565b60405180910390f35b610382611131565b005b61038c611143565b6040516103999190612f3d565b60405180910390f35b6103aa61116d565b6040516103b79190612e77565b60405180910390f35b6103da60048036038101906103d5919061358b565b6111ff565b005b6103f660048036038101906103f1919061366c565b611215565b005b610412600480360381019061040d9190612ecf565b611277565b60405161041f9190612e77565b60405180910390f35b61043061138a565b60405161043d9190613217565b60405180910390f35b61044e6116d7565b60405161045b919061374e565b60405180910390f35b61047e60048036038101906104799190613769565b6116fd565b60405161048b9190612dc3565b60405180910390f35b6104ae60048036038101906104a99190613017565b611791565b005b60007f80ac58cd000000000000000000000000000000000000000000000000000000007bffffffffffffffffffffffffffffffffffffffffffffffffffffffff1916827bffffffffffffffffffffffffffffffffffffffffffffffffffffffff1916148061057b57507f5b5e139f000000000000000000000000000000000000000000000000000000007bffffffffffffffffffffffffffffffffffffffffffffffffffffffff1916827bffffffffffffffffffffffffffffffffffffffffffffffffffffffff1916145b8061058b575061058a82611815565b5b9050919050565b6060600080546105a1906137d8565b80601f01602080910402602001604051908101604052809291908181526020018280546105cd906137d8565b801561061a5780601f106105ef5761010080835404028352916020019161061a565b820191906000526020600020905b8154815290600101906020018083116105fd57829003601f168201915b5050505050905090565b600061062f8261187f565b6004600083815260200190815260200160002060009054906101000a900473ffffffffffffffffffffffffffffffffffffffff169050919050565b600061067582610c91565b90508073ffffffffffffffffffffffffffffffffffffffff168373ffffffffffffffffffffffffffffffffffffffff1614156106e6576040517f08c379a00000000000000000000000000000000000000000000000000000000081526004016106dd9061387c565b60405180910390fd5b8073ffffffffffffffffffffffffffffffffffffffff166107056118ca565b73ffffffffffffffffffffffffffffffffffffffff16148061073457506107338161072e6118ca565b6116fd565b5b610773576040517f08c379a000000000000000000000000000000000000000000000000000000000815260040161076a9061390e565b60405180910390fd5b61077d83836118d2565b505050565b6107cf8282600960009054906101000a900473ffffffffffffffffffffffffffffffffffffffff1673ffffffffffffffffffffffffffffffffffffffff1661198b9092919063ffffffff16565b5050565b6107e46107de6118ca565b82611a11565b610823576040517f08c379a000000000000000000000000000000000000000000000000000000000815260040161081a906139a0565b60405180910390fd5b61082e838383611aa6565b505050565b6060600061084083610d43565b67ffffffffffffffff8111156108595761085861326d565b5b60405190808252806020026020018201604052801561089257816020015b61087f612c2f565b8152602001906001900390816108775790505b5090506000805b600a80549050811015610c3d578473ffffffffffffffffffffffffffffffffffffffff166108c682610c91565b73ffffffffffffffffffffffffffffffffffffffff161415610c2a57600a81815481106108f6576108f56139c0565b5b90600052602060002090600702016040518060e001604052908160008201548152602001600182018054610929906137d8565b80601f0160208091040260200160405190810160405280929190818152602001828054610955906137d8565b80156109a25780601f10610977576101008083540402835291602001916109a2565b820191906000526020600020905b81548152906001019060200180831161098557829003601f168201915b505050505081526020016002820180546109bb906137d8565b80601f01602080910402602001604051908101604052809291908181526020018280546109e7906137d8565b8015610a345780601f10610a0957610100808354040283529160200191610a34565b820191906000526020600020905b815481529060010190602001808311610a1757829003601f168201915b50505050508152602001600382018054610a4d906137d8565b80601f0160208091040260200160405190810160405280929190818152602001828054610a79906137d8565b8015610ac65780601f10610a9b57610100808354040283529160200191610ac6565b820191906000526020600020905b815481529060010190602001808311610aa957829003601f168201915b50505050508152602001600482018054610adf906137d8565b80601f0160208091040260200160405190810160405280929190818152602001828054610b0b906137d8565b8015610b585780601f10610b2d57610100808354040283529160200191610b58565b820191906000526020600020905b815481529060010190602001808311610b3b57829003601f168201915b50505050508152602001600582018054610b71906137d8565b80601f0160208091040260200160405190810160405280929190818152602001828054610b9d906137d8565b8015610bea5780601f10610bbf57610100808354040283529160200191610bea565b820191906000526020600020905b815481529060010190602001808311610bcd57829003601f168201915b50505050508152602001600682015481525050838381518110610c1057610c0f6139c0565b5b60200260200101819052508180610c2690613a1e565b9250505b8080610c3590613a1e565b915050610899565b508192505050919050565b610c50611d0d565b610c58611d8b565b565b610c7583838360405180602001604052806000815250611215565b505050565b6000600760009054906101000a900460ff16905090565b6000806002600084815260200190815260200160002060009054906101000a900473ffffffffffffffffffffffffffffffffffffffff169050600073ffffffffffffffffffffffffffffffffffffffff168173ffffffffffffffffffffffffffffffffffffffff161415610d3a576040517f08c379a0000000000000000000000000000000000000000000000000000000008152600401610d3190613ab3565b60405180910390fd5b80915050919050565b60008073ffffffffffffffffffffffffffffffffffffffff168273ffffffffffffffffffffffffffffffffffffffff161415610db4576040517f08c379a0000000000000000000000000000000000000000000000000000000008152600401610dab90613b45565b60405180910390fd5b600360008373ffffffffffffffffffffffffffffffffffffffff1673ffffffffffffffffffffffffffffffffffffffff168152602001908152602001600020549050919050565b610e03611d0d565b610e0d6000611dee565b565b610e17611eb4565b610e1f611d0d565b610e2f8686868686866000611efe565b505050505050565b600a8181548110610e4757600080fd5b9060005260206000209060070201600091509050806000015490806001018054610e70906137d8565b80601f0160208091040260200160405190810160405280929190818152602001828054610e9c906137d8565b8015610ee95780601f10610ebe57610100808354040283529160200191610ee9565b820191906000526020600020905b815481529060010190602001808311610ecc57829003601f168201915b505050505090806002018054610efe906137d8565b80601f0160208091040260200160405190810160405280929190818152602001828054610f2a906137d8565b8015610f775780601f10610f4c57610100808354040283529160200191610f77565b820191906000526020600020905b815481529060010190602001808311610f5a57829003601f168201915b505050505090806003018054610f8c906137d8565b80601f0160208091040260200160405190810160405280929190818152602001828054610fb8906137d8565b80156110055780601f10610fda57610100808354040283529160200191611005565b820191906000526020600020905b815481529060010190602001808311610fe857829003601f168201915b50505050509080600401805461101a906137d8565b80601f0160208091040260200160405190810160405280929190818152602001828054611046906137d8565b80156110935780601f1061106857610100808354040283529160200191611093565b820191906000526020600020905b81548152906001019060200180831161107657829003601f168201915b5050505050908060050180546110a8906137d8565b80601f01602080910402602001604051908101604052809291908181526020018280546110d4906137d8565b80156111215780601f106110f657610100808354040283529160200191611121565b820191906000526020600020905b81548152906001019060200180831161110457829003601f168201915b5050505050908060060154905087565b611139611d0d565b611141612089565b565b6000600760019054906101000a900473ffffffffffffffffffffffffffffffffffffffff16905090565b60606001805461117c906137d8565b80601f01602080910402602001604051908101604052809291908181526020018280546111a8906137d8565b80156111f55780601f106111ca576101008083540402835291602001916111f5565b820191906000526020600020905b8154815290600101906020018083116111d857829003601f168201915b5050505050905090565b61121161120a6118ca565b83836120ec565b5050565b6112266112206118ca565b83611a11565b611265576040517f08c379a000000000000000000000000000000000000000000000000000000000815260040161125c906139a0565b60405180910390fd5b61127184848484612259565b50505050565b60606112828261187f565b60006006600084815260200190815260200160002080546112a2906137d8565b80601f01602080910402602001604051908101604052809291908181526020018280546112ce906137d8565b801561131b5780601f106112f05761010080835404028352916020019161131b565b820191906000526020600020905b8154815290600101906020018083116112fe57829003601f168201915b50505050509050600061132c6122b5565b9050600081511415611342578192505050611385565b60008251111561137757808260405160200161135f929190613ba1565b60405160208183030381529060405292505050611385565b611380846122cc565b925050505b919050565b6060600a805480602002602001604051908101604052809291908181526020016000905b828210156116ce57838290600052602060002090600702016040518060e0016040529081600082015481526020016001820180546113eb906137d8565b80601f0160208091040260200160405190810160405280929190818152602001828054611417906137d8565b80156114645780601f1061143957610100808354040283529160200191611464565b820191906000526020600020905b81548152906001019060200180831161144757829003601f168201915b5050505050815260200160028201805461147d906137d8565b80601f01602080910402602001604051908101604052809291908181526020018280546114a9906137d8565b80156114f65780601f106114cb576101008083540402835291602001916114f6565b820191906000526020600020905b8154815290600101906020018083116114d957829003601f168201915b5050505050815260200160038201805461150f906137d8565b80601f016020809104026020016040519081016040528092919081815260200182805461153b906137d8565b80156115885780601f1061155d57610100808354040283529160200191611588565b820191906000526020600020905b81548152906001019060200180831161156b57829003601f168201915b505050505081526020016004820180546115a1906137d8565b80601f01602080910402602001604051908101604052809291908181526020018280546115cd906137d8565b801561161a5780601f106115ef5761010080835404028352916020019161161a565b820191906000526020600020905b8154815290600101906020018083116115fd57829003601f168201915b50505050508152602001600582018054611633906137d8565b80601f016020809104026020016040519081016040528092919081815260200182805461165f906137d8565b80156116ac5780601f10611681576101008083540402835291602001916116ac565b820191906000526020600020905b81548152906001019060200180831161168f57829003601f168201915b50505050508152602001600682015481525050815260200190600101906113ae565b50505050905090565b600960009054906101000a900473ffffffffffffffffffffffffffffffffffffffff1681565b6000600560008473ffffffffffffffffffffffffffffffffffffffff1673ffffffffffffffffffffffffffffffffffffffff16815260200190815260200160002060008373ffffffffffffffffffffffffffffffffffffffff1673ffffffffffffffffffffffffffffffffffffffff16815260200190815260200160002060009054906101000a900460ff16905092915050565b611799611d0d565b600073ffffffffffffffffffffffffffffffffffffffff168173ffffffffffffffffffffffffffffffffffffffff161415611809576040517f08c379a000000000000000000000000000000000000000000000000000000000815260040161180090613c37565b60405180910390fd5b61181281611dee565b50565b60007f01ffc9a7000000000000000000000000000000000000000000000000000000007bffffffffffffffffffffffffffffffffffffffffffffffffffffffff1916827bffffffffffffffffffffffffffffffffffffffffffffffffffffffff1916149050919050565b61188881612334565b6118c7576040517f08c379a00000000000000000000000000000000000000000000000000000000081526004016118be90613ab3565b60405180910390fd5b50565b600033905090565b816004600083815260200190815260200160002060006101000a81548173ffffffffffffffffffffffffffffffffffffffff021916908373ffffffffffffffffffffffffffffffffffffffff160217905550808273ffffffffffffffffffffffffffffffffffffffff1661194583610c91565b73ffffffffffffffffffffffffffffffffffffffff167f8c5be1e5ebec7d5bd14f71427d1e84f3dd0314c0f7b2291e5b200ac8c7c3b92560405160405180910390a45050565b611a0c8363a9059cbb60e01b84846040516024016119aa929190613c57565b604051602081830303815290604052907bffffffffffffffffffffffffffffffffffffffffffffffffffffffff19166020820180517bffffffffffffffffffffffffffffffffffffffffffffffffffffffff83818316178352505050506123a0565b505050565b600080611a1d83610c91565b90508073ffffffffffffffffffffffffffffffffffffffff168473ffffffffffffffffffffffffffffffffffffffff161480611a5f5750611a5e81856116fd565b5b80611a9d57508373ffffffffffffffffffffffffffffffffffffffff16611a8584610624565b73ffffffffffffffffffffffffffffffffffffffff16145b91505092915050565b8273ffffffffffffffffffffffffffffffffffffffff16611ac682610c91565b73ffffffffffffffffffffffffffffffffffffffff1614611b1c576040517f08c379a0000000000000000000000000000000000000000000000000000000008152600401611b1390613cf2565b60405180910390fd5b600073ffffffffffffffffffffffffffffffffffffffff168273ffffffffffffffffffffffffffffffffffffffff161415611b8c576040517f08c379a0000000000000000000000000000000000000000000000000000000008152600401611b8390613d84565b60405180910390fd5b611b97838383612467565b611ba26000826118d2565b6001600360008573ffffffffffffffffffffffffffffffffffffffff1673ffffffffffffffffffffffffffffffffffffffff1681526020019081526020016000206000828254611bf29190613da4565b925050819055506001600360008473ffffffffffffffffffffffffffffffffffffffff1673ffffffffffffffffffffffffffffffffffffffff1681526020019081526020016000206000828254611c499190613dd8565b92505081905550816002600083815260200190815260200160002060006101000a81548173ffffffffffffffffffffffffffffffffffffffff021916908373ffffffffffffffffffffffffffffffffffffffff160217905550808273ffffffffffffffffffffffffffffffffffffffff168473ffffffffffffffffffffffffffffffffffffffff167fddf252ad1be2c89b69c2b068fc378daa952ba7f163c4a11628f55a4df523b3ef60405160405180910390a4611d0883838361246c565b505050565b611d156118ca565b73ffffffffffffffffffffffffffffffffffffffff16611d33611143565b73ffffffffffffffffffffffffffffffffffffffff1614611d89576040517f08c379a0000000000000000000000000000000000000000000000000000000008152600401611d8090613e7a565b60405180910390fd5b565b611d93612471565b6000600760006101000a81548160ff0219169083151502179055507f5db9ee0a495bf2e6ff9c91a7834c1ba4fdd244a5e8aa4e537bd38aeae4b073aa611dd76118ca565b604051611de49190612f3d565b60405180910390a1565b6000600760019054906101000a900473ffffffffffffffffffffffffffffffffffffffff16905081600760016101000a81548173ffffffffffffffffffffffffffffffffffffffff021916908373ffffffffffffffffffffffffffffffffffffffff1602179055508173ffffffffffffffffffffffffffffffffffffffff168173ffffffffffffffffffffffffffffffffffffffff167f8be0079c531659141344cd1fd0a4f28419497f9722a3daafe3b4186f6b6457e060405160405180910390a35050565b611ebc610c7a565b15611efc576040517f08c379a0000000000000000000000000000000000000000000000000000000008152600401611ef390613ee6565b60405180910390fd5b565b60006040518060e001604052806008548152602001898152602001878152602001868152602001858152602001848152602001838152509050600a819080600181540180825580915050600190039060005260206000209060070201600090919091909150600082015181600001556020820151816001019080519060200190611f89929190612c6c565b506040820151816002019080519060200190611fa6929190612c6c565b506060820151816003019080519060200190611fc3929190612c6c565b506080820151816004019080519060200190611fe0929190612c6c565b5060a0820151816005019080519060200190611ffd929190612c6c565b5060c082015181600601555050612016336008546124ba565b612022600854886124d8565b7f1d60dcea5314b2deac0dae029f4cfb61cfced1fa48ec5fee12291b93da06354c60085489888888888860405161205f97969594939291906134cd565b60405180910390a16008600081548092919061207a90613a1e565b91905055505050505050505050565b612091611eb4565b6001600760006101000a81548160ff0219169083151502179055507f62e78cea01bee320cd4e420270b5ea74000d11b0c9f74754ebdbfc544b05a2586120d56118ca565b6040516120e29190612f3d565b60405180910390a1565b8173ffffffffffffffffffffffffffffffffffffffff168373ffffffffffffffffffffffffffffffffffffffff16141561215b576040517f08c379a000000000000000000000000000000000000000000000000000000000815260040161215290613f52565b60405180910390fd5b80600560008573ffffffffffffffffffffffffffffffffffffffff1673ffffffffffffffffffffffffffffffffffffffff16815260200190815260200160002060008473ffffffffffffffffffffffffffffffffffffffff1673ffffffffffffffffffffffffffffffffffffffff16815260200190815260200160002060006101000a81548160ff0219169083151502179055508173ffffffffffffffffffffffffffffffffffffffff168373ffffffffffffffffffffffffffffffffffffffff167f17307eab39ab6107e8899845ad3d59bd9653f200f220920489ca2b5937696c318360405161224c9190612dc3565b60405180910390a3505050565b612264848484611aa6565b6122708484848461254c565b6122af576040517f08c379a00000000000000000000000000000000000000000000000000000000081526004016122a690613fe4565b60405180910390fd5b50505050565b606060405180602001604052806000815250905090565b60606122d78261187f565b60006122e16122b5565b90506000815111612301576040518060200160405280600081525061232c565b8061230b846126e3565b60405160200161231c929190613ba1565b6040516020818303038152906040525b915050919050565b60008073ffffffffffffffffffffffffffffffffffffffff166002600084815260200190815260200160002060009054906101000a900473ffffffffffffffffffffffffffffffffffffffff1673ffffffffffffffffffffffffffffffffffffffff1614159050919050565b6000612402826040518060400160405280602081526020017f5361666545524332303a206c6f772d6c6576656c2063616c6c206661696c65648152508573ffffffffffffffffffffffffffffffffffffffff166128449092919063ffffffff16565b905060008151111561246257808060200190518101906124229190614019565b612461576040517f08c379a0000000000000000000000000000000000000000000000000000000008152600401612458906140b8565b60405180910390fd5b5b505050565b505050565b505050565b612479610c7a565b6124b8576040517f08c379a00000000000000000000000000000000000000000000000000000000081526004016124af90614124565b60405180910390fd5b565b6124d482826040518060200160405280600081525061285c565b5050565b6124e182612334565b612520576040517f08c379a0000000000000000000000000000000000000000000000000000000008152600401612517906141b6565b60405180910390fd5b80600660008481526020019081526020016000209080519060200190612547929190612c6c565b505050565b600061256d8473ffffffffffffffffffffffffffffffffffffffff166128b7565b156126d6578373ffffffffffffffffffffffffffffffffffffffff1663150b7a026125966118ca565b8786866040518563ffffffff1660e01b81526004016125b8949392919061422b565b602060405180830381600087803b1580156125d257600080fd5b505af192505050801561260357506040513d601f19601f82011682018060405250810190612600919061428c565b60015b612686573d8060008114612633576040519150601f19603f3d011682016040523d82523d6000602084013e612638565b606091505b5060008151141561267e576040517f08c379a000000000000000000000000000000000000000000000000000000000815260040161267590613fe4565b60405180910390fd5b805181602001fd5b63150b7a0260e01b7bffffffffffffffffffffffffffffffffffffffffffffffffffffffff1916817bffffffffffffffffffffffffffffffffffffffffffffffffffffffff1916149150506126db565b600190505b949350505050565b6060600082141561272b576040518060400160405280600181526020017f3000000000000000000000000000000000000000000000000000000000000000815250905061283f565b600082905060005b6000821461275d57808061274690613a1e565b915050600a8261275691906142e8565b9150612733565b60008167ffffffffffffffff8111156127795761277861326d565b5b6040519080825280601f01601f1916602001820160405280156127ab5781602001600182028036833780820191505090505b5090505b60008514612838576001826127c49190613da4565b9150600a856127d39190614319565b60306127df9190613dd8565b60f81b8183815181106127f5576127f46139c0565b5b60200101907effffffffffffffffffffffffffffffffffffffffffffffffffffffffffffff1916908160001a905350600a8561283191906142e8565b94506127af565b8093505050505b919050565b606061285384846000856128da565b90509392505050565b61286683836129ee565b612873600084848461254c565b6128b2576040517f08c379a00000000000000000000000000000000000000000000000000000000081526004016128a990613fe4565b60405180910390fd5b505050565b6000808273ffffffffffffffffffffffffffffffffffffffff163b119050919050565b60608247101561291f576040517f08c379a0000000000000000000000000000000000000000000000000000000008152600401612916906143bc565b60405180910390fd5b612928856128b7565b612967576040517f08c379a000000000000000000000000000000000000000000000000000000000815260040161295e90614428565b60405180910390fd5b6000808673ffffffffffffffffffffffffffffffffffffffff1685876040516129909190614484565b60006040518083038185875af1925050503d80600081146129cd576040519150601f19603f3d011682016040523d82523d6000602084013e6129d2565b606091505b50915091506129e2828286612bc8565b92505050949350505050565b600073ffffffffffffffffffffffffffffffffffffffff168273ffffffffffffffffffffffffffffffffffffffff161415612a5e576040517f08c379a0000000000000000000000000000000000000000000000000000000008152600401612a55906144e7565b60405180910390fd5b612a6781612334565b15612aa7576040517f08c379a0000000000000000000000000000000000000000000000000000000008152600401612a9e90614553565b60405180910390fd5b612ab360008383612467565b6001600360008473ffffffffffffffffffffffffffffffffffffffff1673ffffffffffffffffffffffffffffffffffffffff1681526020019081526020016000206000828254612b039190613dd8565b92505081905550816002600083815260200190815260200160002060006101000a81548173ffffffffffffffffffffffffffffffffffffffff021916908373ffffffffffffffffffffffffffffffffffffffff160217905550808273ffffffffffffffffffffffffffffffffffffffff16600073ffffffffffffffffffffffffffffffffffffffff167fddf252ad1be2c89b69c2b068fc378daa952ba7f163c4a11628f55a4df523b3ef60405160405180910390a4612bc46000838361246c565b5050565b60608315612bd857829050612c28565b600083511115612beb5782518084602001fd5b816040517f08c379a0000000000000000000000000000000000000000000000000000000008152600401612c1f9190612e77565b60405180910390fd5b9392505050565b6040518060e00160405280600081526020016060815260200160608152602001606081526020016060815260200160608152602001600081525090565b828054612c78906137d8565b90600052602060002090601f016020900481019282612c9a5760008555612ce1565b82601f10612cb357805160ff1916838001178555612ce1565b82800160010185558215612ce1579182015b82811115612ce0578251825591602001919060010190612cc5565b5b509050612cee9190612cf2565b5090565b5b80821115612d0b576000816000905550600101612cf3565b5090565b6000604051905090565b600080fd5b600080fd5b60007fffffffff0000000000000000000000000000000000000000000000000000000082169050919050565b612d5881612d23565b8114612d6357600080fd5b50565b600081359050612d7581612d4f565b92915050565b600060208284031215612d9157612d90612d19565b5b6000612d9f84828501612d66565b91505092915050565b60008115159050919050565b612dbd81612da8565b82525050565b6000602082019050612dd86000830184612db4565b92915050565b600081519050919050565b600082825260208201905092915050565b60005b83811015612e18578082015181840152602081019050612dfd565b83811115612e27576000848401525b50505050565b6000601f19601f8301169050919050565b6000612e4982612dde565b612e538185612de9565b9350612e63818560208601612dfa565b612e6c81612e2d565b840191505092915050565b60006020820190508181036000830152612e918184612e3e565b905092915050565b6000819050919050565b612eac81612e99565b8114612eb757600080fd5b50565b600081359050612ec981612ea3565b92915050565b600060208284031215612ee557612ee4612d19565b5b6000612ef384828501612eba565b91505092915050565b600073ffffffffffffffffffffffffffffffffffffffff82169050919050565b6000612f2782612efc565b9050919050565b612f3781612f1c565b82525050565b6000602082019050612f526000830184612f2e565b92915050565b612f6181612f1c565b8114612f6c57600080fd5b50565b600081359050612f7e81612f58565b92915050565b60008060408385031215612f9b57612f9a612d19565b5b6000612fa985828601612f6f565b9250506020612fba85828601612eba565b9150509250929050565b600080600060608486031215612fdd57612fdc612d19565b5b6000612feb86828701612f6f565b9350506020612ffc86828701612f6f565b925050604061300d86828701612eba565b9150509250925092565b60006020828403121561302d5761302c612d19565b5b600061303b84828501612f6f565b91505092915050565b600081519050919050565b600082825260208201905092915050565b6000819050602082019050919050565b61307981612e99565b82525050565b600082825260208201905092915050565b600061309b82612dde565b6130a5818561307f565b93506130b5818560208601612dfa565b6130be81612e2d565b840191505092915050565b600060e0830160008301516130e16000860182613070565b50602083015184820360208601526130f98282613090565b915050604083015184820360408601526131138282613090565b9150506060830151848203606086015261312d8282613090565b915050608083015184820360808601526131478282613090565b91505060a083015184820360a08601526131618282613090565b91505060c083015161317660c0860182613070565b508091505092915050565b600061318d83836130c9565b905092915050565b6000602082019050919050565b60006131ad82613044565b6131b7818561304f565b9350836020820285016131c985613060565b8060005b8581101561320557848403895281516131e68582613181565b94506131f183613195565b925060208a019950506001810190506131cd565b50829750879550505050505092915050565b6000602082019050818103600083015261323181846131a2565b905092915050565b61324281612e99565b82525050565b600060208201905061325d6000830184613239565b92915050565b600080fd5b600080fd5b7f4e487b7100000000000000000000000000000000000000000000000000000000600052604160045260246000fd5b6132a582612e2d565b810181811067ffffffffffffffff821117156132c4576132c361326d565b5b80604052505050565b60006132d7612d0f565b90506132e3828261329c565b919050565b600067ffffffffffffffff8211156133035761330261326d565b5b61330c82612e2d565b9050602081019050919050565b82818337600083830152505050565b600061333b613336846132e8565b6132cd565b90508281526020810184848401111561335757613356613268565b5b613362848285613319565b509392505050565b600082601f83011261337f5761337e613263565b5b813561338f848260208601613328565b91505092915050565b60008060008060008060c087890312156133b5576133b4612d19565b5b600087013567ffffffffffffffff8111156133d3576133d2612d1e565b5b6133df89828a0161336a565b965050602087013567ffffffffffffffff811115613400576133ff612d1e565b5b61340c89828a0161336a565b955050604087013567ffffffffffffffff81111561342d5761342c612d1e565b5b61343989828a0161336a565b945050606087013567ffffffffffffffff81111561345a57613459612d1e565b5b61346689828a0161336a565b935050608087013567ffffffffffffffff81111561348757613486612d1e565b5b61349389828a0161336a565b92505060a087013567ffffffffffffffff8111156134b4576134b3612d1e565b5b6134c089828a0161336a565b9150509295509295509295565b600060e0820190506134e2600083018a613239565b81810360208301526134f48189612e3e565b905081810360408301526135088188612e3e565b9050818103606083015261351c8187612e3e565b905081810360808301526135308186612e3e565b905081810360a08301526135448185612e3e565b905061355360c0830184613239565b98975050505050505050565b61356881612da8565b811461357357600080fd5b50565b6000813590506135858161355f565b92915050565b600080604083850312156135a2576135a1612d19565b5b60006135b085828601612f6f565b92505060206135c185828601613576565b9150509250929050565b600067ffffffffffffffff8211156135e6576135e561326d565b5b6135ef82612e2d565b9050602081019050919050565b600061360f61360a846135cb565b6132cd565b90508281526020810184848401111561362b5761362a613268565b5b613636848285613319565b509392505050565b600082601f83011261365357613652613263565b5b81356136638482602086016135fc565b91505092915050565b6000806000806080858703121561368657613685612d19565b5b600061369487828801612f6f565b94505060206136a587828801612f6f565b93505060406136b687828801612eba565b925050606085013567ffffffffffffffff8111156136d7576136d6612d1e565b5b6136e38782880161363e565b91505092959194509250565b6000819050919050565b600061371461370f61370a84612efc565b6136ef565b612efc565b9050919050565b6000613726826136f9565b9050919050565b60006137388261371b565b9050919050565b6137488161372d565b82525050565b6000602082019050613763600083018461373f565b92915050565b600080604083850312156137805761377f612d19565b5b600061378e85828601612f6f565b925050602061379f85828601612f6f565b9150509250929050565b7f4e487b7100000000000000000000000000000000000000000000000000000000600052602260045260246000fd5b600060028204905060018216806137f057607f821691505b60208210811415613804576138036137a9565b5b50919050565b7f4552433732313a20617070726f76616c20746f2063757272656e74206f776e6560008201527f7200000000000000000000000000000000000000000000000000000000000000602082015250565b6000613866602183612de9565b91506138718261380a565b604082019050919050565b6000602082019050818103600083015261389581613859565b9050919050565b7f4552433732313a20617070726f76652063616c6c6572206973206e6f7420746f60008201527f6b656e206f776e6572206e6f7220617070726f76656420666f7220616c6c0000602082015250565b60006138f8603e83612de9565b91506139038261389c565b604082019050919050565b60006020820190508181036000830152613927816138eb565b9050919050565b7f4552433732313a2063616c6c6572206973206e6f7420746f6b656e206f776e6560008201527f72206e6f7220617070726f766564000000000000000000000000000000000000602082015250565b600061398a602e83612de9565b91506139958261392e565b604082019050919050565b600060208201905081810360008301526139b98161397d565b9050919050565b7f4e487b7100000000000000000000000000000000000000000000000000000000600052603260045260246000fd5b7f4e487b7100000000000000000000000000000000000000000000000000000000600052601160045260246000fd5b6000613a2982612e99565b91507fffffffffffffffffffffffffffffffffffffffffffffffffffffffffffffffff821415613a5c57613a5b6139ef565b5b600182019050919050565b7f4552433732313a20696e76616c696420746f6b656e2049440000000000000000600082015250565b6000613a9d601883612de9565b9150613aa882613a67565b602082019050919050565b60006020820190508181036000830152613acc81613a90565b9050919050565b7f4552433732313a2061646472657373207a65726f206973206e6f74206120766160008201527f6c6964206f776e65720000000000000000000000000000000000000000000000602082015250565b6000613b2f602983612de9565b9150613b3a82613ad3565b604082019050919050565b60006020820190508181036000830152613b5e81613b22565b9050919050565b600081905092915050565b6000613b7b82612dde565b613b858185613b65565b9350613b95818560208601612dfa565b80840191505092915050565b6000613bad8285613b70565b9150613bb98284613b70565b91508190509392505050565b7f4f776e61626c653a206e6577206f776e657220697320746865207a65726f206160008201527f6464726573730000000000000000000000000000000000000000000000000000602082015250565b6000613c21602683612de9565b9150613c2c82613bc5565b604082019050919050565b60006020820190508181036000830152613c5081613c14565b9050919050565b6000604082019050613c6c6000830185612f2e565b613c796020830184613239565b9392505050565b7f4552433732313a207472616e736665722066726f6d20696e636f72726563742060008201527f6f776e6572000000000000000000000000000000000000000000000000000000602082015250565b6000613cdc602583612de9565b9150613ce782613c80565b604082019050919050565b60006020820190508181036000830152613d0b81613ccf565b9050919050565b7f4552433732313a207472616e7366657220746f20746865207a65726f2061646460008201527f7265737300000000000000000000000000000000000000000000000000000000602082015250565b6000613d6e602483612de9565b9150613d7982613d12565b604082019050919050565b60006020820190508181036000830152613d9d81613d61565b9050919050565b6000613daf82612e99565b9150613dba83612e99565b925082821015613dcd57613dcc6139ef565b5b828203905092915050565b6000613de382612e99565b9150613dee83612e99565b9250827fffffffffffffffffffffffffffffffffffffffffffffffffffffffffffffffff03821115613e2357613e226139ef565b5b828201905092915050565b7f4f776e61626c653a2063616c6c6572206973206e6f7420746865206f776e6572600082015250565b6000613e64602083612de9565b9150613e6f82613e2e565b602082019050919050565b60006020820190508181036000830152613e9381613e57565b9050919050565b7f5061757361626c653a2070617573656400000000000000000000000000000000600082015250565b6000613ed0601083612de9565b9150613edb82613e9a565b602082019050919050565b60006020820190508181036000830152613eff81613ec3565b9050919050565b7f4552433732313a20617070726f766520746f2063616c6c657200000000000000600082015250565b6000613f3c601983612de9565b9150613f4782613f06565b602082019050919050565b60006020820190508181036000830152613f6b81613f2f565b9050919050565b7f4552433732313a207472616e7366657220746f206e6f6e20455243373231526560008201527f63656976657220696d706c656d656e7465720000000000000000000000000000602082015250565b6000613fce603283612de9565b9150613fd982613f72565b604082019050919050565b60006020820190508181036000830152613ffd81613fc1565b9050919050565b6000815190506140138161355f565b92915050565b60006020828403121561402f5761402e612d19565b5b600061403d84828501614004565b91505092915050565b7f5361666545524332303a204552433230206f7065726174696f6e20646964206e60008201527f6f74207375636365656400000000000000000000000000000000000000000000602082015250565b60006140a2602a83612de9565b91506140ad82614046565b604082019050919050565b600060208201905081810360008301526140d181614095565b9050919050565b7f5061757361626c653a206e6f7420706175736564000000000000000000000000600082015250565b600061410e601483612de9565b9150614119826140d8565b602082019050919050565b6000602082019050818103600083015261413d81614101565b9050919050565b7f45524337323155524953746f726167653a2055524920736574206f66206e6f6e60008201527f6578697374656e7420746f6b656e000000000000000000000000000000000000602082015250565b60006141a0602e83612de9565b91506141ab82614144565b604082019050919050565b600060208201905081810360008301526141cf81614193565b9050919050565b600081519050919050565b600082825260208201905092915050565b60006141fd826141d6565b61420781856141e1565b9350614217818560208601612dfa565b61422081612e2d565b840191505092915050565b60006080820190506142406000830187612f2e565b61424d6020830186612f2e565b61425a6040830185613239565b818103606083015261426c81846141f2565b905095945050505050565b60008151905061428681612d4f565b92915050565b6000602082840312156142a2576142a1612d19565b5b60006142b084828501614277565b91505092915050565b7f4e487b7100000000000000000000000000000000000000000000000000000000600052601260045260246000fd5b60006142f382612e99565b91506142fe83612e99565b92508261430e5761430d6142b9565b5b828204905092915050565b600061432482612e99565b915061432f83612e99565b92508261433f5761433e6142b9565b5b828206905092915050565b7f416464726573733a20696e73756666696369656e742062616c616e636520666f60008201527f722063616c6c0000000000000000000000000000000000000000000000000000602082015250565b60006143a6602683612de9565b91506143b18261434a565b604082019050919050565b600060208201905081810360008301526143d581614399565b9050919050565b7f416464726573733a2063616c6c20746f206e6f6e2d636f6e7472616374000000600082015250565b6000614412601d83612de9565b915061441d826143dc565b602082019050919050565b6000602082019050818103600083015261444181614405565b9050919050565b600081905092915050565b600061445e826141d6565b6144688185614448565b9350614478818560208601612dfa565b80840191505092915050565b60006144908284614453565b915081905092915050565b7f4552433732313a206d696e7420746f20746865207a65726f2061646472657373600082015250565b60006144d1602083612de9565b91506144dc8261449b565b602082019050919050565b60006020820190508181036000830152614500816144c4565b9050919050565b7f4552433732313a20746f6b656e20616c7265616479206d696e74656400000000600082015250565b600061453d601c83612de9565b915061454882614507565b602082019050919050565b6000602082019050818103600083015261456c81614530565b905091905056fea26469706673582212207fb17bed41f4ea95756c931b53400e611e019ab82a9a27c2a3e755aa8a6052e364736f6c63430008090033",
  "linkReferences": {},
  "deployedLinkReferences": {}
}