{
  "_format": "hh-sol-artifact-1",
  "contractName": "Kilimanjaro",
  "sourceName": "contracts/Kilimanjaro.sol",
  "abi": [
    {
      "inputs": [
        {
          "internalType": "address",
          "name": "_rewardsToken",
          "type": "address"
        }
      ],
      "stateMutability": "nonpayable",
      "type": "constructor"
    },
    {
      "anonymous": false,
      "inputs": [
        {
          "indexed": true,
          "internalType": "address",
          "name": "owner",
          "type": "address"
        },
        {
          "indexed": true,
          "internalType": "address",
          "name": "approved",
          "type": "address"
        },
        {
          "indexed": true,
          "internalType": "uint256",
          "name": "tokenId",
          "type": "uint256"
        }
      ],
      "name": "Approval",
      "type": "event"
    },
    {
      "anonymous": false,
      "inputs": [
        {
          "indexed": true,
          "internalType": "address",
          "name": "owner",
          "type": "address"
        },
        {
          "indexed": true,
          "internalType": "address",
          "name": "operator",
          "type": "address"
        },
        {
          "indexed": false,
          "internalType": "bool",
          "name": "approved",
          "type": "bool"
        }
      ],
      "name": "ApprovalForAll",
      "type": "event"
    },
    {
      "anonymous": false,
      "inputs": [
        {
          "indexed": false,
          "internalType": "uint256",
          "name": "id",
          "type": "uint256"
        },
        {
          "indexed": false,
          "internalType": "string",
          "name": "species",
          "type": "string"
        },
        {
          "indexed": false,
          "internalType": "uint256",
          "name": "datePlanted",
          "type": "uint256"
        },
        {
          "indexed": false,
          "internalType": "string",
          "name": "geoLocation",
          "type": "string"
        },
        {
          "indexed": false,
          "internalType": "string",
          "name": "longitude",
          "type": "string"
        },
        {
          "indexed": false,
          "internalType": "string",
          "name": "latitude",
          "type": "string"
        },
        {
          "indexed": false,
          "internalType": "uint256",
          "name": "CO2Credit",
          "type": "uint256"
        }
      ],
      "name": "NewTree",
      "type": "event"
    },
    {
      "anonymous": false,
      "inputs": [
        {
          "indexed": true,
          "internalType": "address",
          "name": "previousOwner",
          "type": "address"
        },
        {
          "indexed": true,
          "internalType": "address",
          "name": "newOwner",
          "type": "address"
        }
      ],
      "name": "OwnershipTransferred",
      "type": "event"
    },
    {
      "anonymous": false,
      "inputs": [
        {
          "indexed": false,
          "internalType": "address",
          "name": "account",
          "type": "address"
        }
      ],
      "name": "Paused",
      "type": "event"
    },
    {
      "anonymous": false,
      "inputs": [
        {
          "indexed": true,
          "internalType": "address",
          "name": "from",
          "type": "address"
        },
        {
          "indexed": true,
          "internalType": "address",
          "name": "to",
          "type": "address"
        },
        {
          "indexed": true,
          "internalType": "uint256",
          "name": "tokenId",
          "type": "uint256"
        }
      ],
      "name": "Transfer",
      "type": "event"
    },
    {
      "anonymous": false,
      "inputs": [
        {
          "indexed": false,
          "internalType": "address",
          "name": "account",
          "type": "address"
        }
      ],
      "name": "Unpaused",
      "type": "event"
    },
    {
      "inputs": [
        {
          "internalType": "address",
          "name": "to",
          "type": "address"
        },
        {
          "internalType": "uint256",
          "name": "tokenId",
          "type": "uint256"
        }
      ],
      "name": "approve",
      "outputs": [],
      "stateMutability": "nonpayable",
      "type": "function"
    },
    {
      "inputs": [
        {
          "internalType": "address",
          "name": "owner",
          "type": "address"
        }
      ],
      "name": "balanceOf",
      "outputs": [
        {
          "internalType": "uint256",
          "name": "",
          "type": "uint256"
        }
      ],
      "stateMutability": "view",
      "type": "function"
    },
    {
      "inputs": [
        {
          "internalType": "string",
          "name": "_species",
          "type": "string"
        },
        {
          "internalType": "string",
          "name": "tokenURI",
          "type": "string"
        },
        {
          "internalType": "uint256",
          "name": "_datePlanted",
          "type": "uint256"
        },
        {
          "internalType": "string",
          "name": "_geoLocation",
          "type": "string"
        },
        {
          "internalType": "string",
          "name": "longitude",
          "type": "string"
        },
        {
          "internalType": "string",
          "name": "latitude",
          "type": "string"
        }
      ],
      "name": "createTree",
      "outputs": [],
      "stateMutability": "payable",
      "type": "function"
    },
    {
      "inputs": [
        {
          "internalType": "uint256",
          "name": "tokenId",
          "type": "uint256"
        }
      ],
      "name": "getApproved",
      "outputs": [
        {
          "internalType": "address",
          "name": "",
          "type": "address"
        }
      ],
      "stateMutability": "view",
      "type": "function"
    },
    {
      "inputs": [
        {
          "internalType": "address",
          "name": "_owner",
          "type": "address"
        }
      ],
      "name": "getOwnerTrees",
      "outputs": [
        {
          "components": [
            {
              "internalType": "uint256",
              "name": "id",
              "type": "uint256"
            },
            {
              "internalType": "string",
              "name": "species",
              "type": "string"
            },
            {
              "internalType": "uint256",
              "name": "datePlanted",
              "type": "uint256"
            },
            {
              "internalType": "string",
              "name": "geoLocation",
              "type": "string"
            },
            {
              "internalType": "string",
              "name": "longitude",
              "type": "string"
            },
            {
              "internalType": "string",
              "name": "latitude",
              "type": "string"
            },
            {
              "internalType": "uint256",
              "name": "CO2Credit",
              "type": "uint256"
            }
          ],
          "internalType": "struct Kilimanjaro.Tree[]",
          "name": "",
          "type": "tuple[]"
        }
      ],
      "stateMutability": "view",
      "type": "function"
    },
    {
      "inputs": [],
      "name": "getTrees",
      "outputs": [
        {
          "components": [
            {
              "internalType": "uint256",
              "name": "id",
              "type": "uint256"
            },
            {
              "internalType": "string",
              "name": "species",
              "type": "string"
            },
            {
              "internalType": "uint256",
              "name": "datePlanted",
              "type": "uint256"
            },
            {
              "internalType": "string",
              "name": "geoLocation",
              "type": "string"
            },
            {
              "internalType": "string",
              "name": "longitude",
              "type": "string"
            },
            {
              "internalType": "string",
              "name": "latitude",
              "type": "string"
            },
            {
              "internalType": "uint256",
              "name": "CO2Credit",
              "type": "uint256"
            }
          ],
          "internalType": "struct Kilimanjaro.Tree[]",
          "name": "",
          "type": "tuple[]"
        }
      ],
      "stateMutability": "view",
      "type": "function"
    },
    {
      "inputs": [
        {
          "internalType": "address",
          "name": "owner",
          "type": "address"
        },
        {
          "internalType": "address",
          "name": "operator",
          "type": "address"
        }
      ],
      "name": "isApprovedForAll",
      "outputs": [
        {
          "internalType": "bool",
          "name": "",
          "type": "bool"
        }
      ],
      "stateMutability": "view",
      "type": "function"
    },
    {
      "inputs": [],
      "name": "name",
      "outputs": [
        {
          "internalType": "string",
          "name": "",
          "type": "string"
        }
      ],
      "stateMutability": "view",
      "type": "function"
    },
    {
      "inputs": [],
      "name": "owner",
      "outputs": [
        {
          "internalType": "address",
          "name": "",
          "type": "address"
        }
      ],
      "stateMutability": "view",
      "type": "function"
    },
    {
      "inputs": [
        {
          "internalType": "uint256",
          "name": "tokenId",
          "type": "uint256"
        }
      ],
      "name": "ownerOf",
      "outputs": [
        {
          "internalType": "address",
          "name": "",
          "type": "address"
        }
      ],
      "stateMutability": "view",
      "type": "function"
    },
    {
      "inputs": [],
      "name": "pause",
      "outputs": [],
      "stateMutability": "nonpayable",
      "type": "function"
    },
    {
      "inputs": [],
      "name": "paused",
      "outputs": [
        {
          "internalType": "bool",
          "name": "",
          "type": "bool"
        }
      ],
      "stateMutability": "view",
      "type": "function"
    },
    {
      "inputs": [],
      "name": "renounceOwnership",
      "outputs": [],
      "stateMutability": "nonpayable",
      "type": "function"
    },
    {
      "inputs": [
        {
          "internalType": "address",
          "name": "farmer",
          "type": "address"
        },
        {
          "internalType": "uint256",
          "name": "wt",
          "type": "uint256"
        }
      ],
      "name": "reward",
      "outputs": [],
      "stateMutability": "nonpayable",
      "type": "function"
    },
    {
      "inputs": [],
      "name": "rewardsToken",
      "outputs": [
        {
          "internalType": "contract IERC20",
          "name": "",
          "type": "address"
        }
      ],
      "stateMutability": "view",
      "type": "function"
    },
    {
      "inputs": [
        {
          "internalType": "address",
          "name": "from",
          "type": "address"
        },
        {
          "internalType": "address",
          "name": "to",
          "type": "address"
        },
        {
          "internalType": "uint256",
          "name": "tokenId",
          "type": "uint256"
        }
      ],
      "name": "safeTransferFrom",
      "outputs": [],
      "stateMutability": "nonpayable",
      "type": "function"
    },
    {
      "inputs": [
        {
          "internalType": "address",
          "name": "from",
          "type": "address"
        },
        {
          "internalType": "address",
          "name": "to",
          "type": "address"
        },
        {
          "internalType": "uint256",
          "name": "tokenId",
          "type": "uint256"
        },
        {
          "internalType": "bytes",
          "name": "data",
          "type": "bytes"
        }
      ],
      "name": "safeTransferFrom",
      "outputs": [],
      "stateMutability": "nonpayable",
      "type": "function"
    },
    {
      "inputs": [
        {
          "internalType": "address",
          "name": "operator",
          "type": "address"
        },
        {
          "internalType": "bool",
          "name": "approved",
          "type": "bool"
        }
      ],
      "name": "setApprovalForAll",
      "outputs": [],
      "stateMutability": "nonpayable",
      "type": "function"
    },
    {
      "inputs": [
        {
          "internalType": "bytes4",
          "name": "interfaceId",
          "type": "bytes4"
        }
      ],
      "name": "supportsInterface",
      "outputs": [
        {
          "internalType": "bool",
          "name": "",
          "type": "bool"
        }
      ],
      "stateMutability": "view",
      "type": "function"
    },
    {
      "inputs": [],
      "name": "symbol",
      "outputs": [
        {
          "internalType": "string",
          "name": "",
          "type": "string"
        }
      ],
      "stateMutability": "view",
      "type": "function"
    },
    {
      "inputs": [
        {
          "internalType": "uint256",
          "name": "tokenId",
          "type": "uint256"
        }
      ],
      "name": "tokenURI",
      "outputs": [
        {
          "internalType": "string",
          "name": "",
          "type": "string"
        }
      ],
      "stateMutability": "view",
      "type": "function"
    },
    {
      "inputs": [
        {
          "internalType": "address",
          "name": "from",
          "type": "address"
        },
        {
          "internalType": "address",
          "name": "to",
          "type": "address"
        },
        {
          "internalType": "uint256",
          "name": "tokenId",
          "type": "uint256"
        }
      ],
      "name": "transferFrom",
      "outputs": [],
      "stateMutability": "nonpayable",
      "type": "function"
    },
    {
      "inputs": [
        {
          "internalType": "address",
          "name": "newOwner",
          "type": "address"
        }
      ],
      "name": "transferOwnership",
      "outputs": [],
      "stateMutability": "nonpayable",
      "type": "function"
    },
    {
      "inputs": [
        {
          "internalType": "uint256",
          "name": "",
          "type": "uint256"
        }
      ],
      "name": "trees",
      "outputs": [
        {
          "internalType": "uint256",
          "name": "id",
          "type": "uint256"
        },
        {
          "internalType": "string",
          "name": "species",
          "type": "string"
        },
        {
          "internalType": "uint256",
          "name": "datePlanted",
          "type": "uint256"
        },
        {
          "internalType": "string",
          "name": "geoLocation",
          "type": "string"
        },
        {
          "internalType": "string",
          "name": "longitude",
          "type": "string"
        },
        {
          "internalType": "string",
          "name": "latitude",
          "type": "string"
        },
        {
          "internalType": "uint256",
          "name": "CO2Credit",
          "type": "uint256"
        }
      ],
      "stateMutability": "view",
      "type": "function"
    },
    {
      "inputs": [],
      "name": "unpause",
      "outputs": [],
      "stateMutability": "nonpayable",
      "type": "function"
    }
  ],
  "bytecode": "0x60806040523480156200001157600080fd5b50604051620048e8380380620048e8833981810160405281019062000037919062000342565b6040518060400160405280600b81526020017f4b696c696d616e6a61726f0000000000000000000000000000000000000000008152506040518060400160405280600381526020017f4b4c4d00000000000000000000000000000000000000000000000000000000008152508160009080519060200190620000bb92919062000228565b508060019080519060200190620000d492919062000228565b5050506000600760006101000a81548160ff02191690831515021790555062000112620001066200015a60201b60201c565b6200016260201b60201c565b80600960006101000a81548173ffffffffffffffffffffffffffffffffffffffff021916908373ffffffffffffffffffffffffffffffffffffffff16021790555050620003d9565b600033905090565b6000600760019054906101000a900473ffffffffffffffffffffffffffffffffffffffff16905081600760016101000a81548173ffffffffffffffffffffffffffffffffffffffff021916908373ffffffffffffffffffffffffffffffffffffffff1602179055508173ffffffffffffffffffffffffffffffffffffffff168173ffffffffffffffffffffffffffffffffffffffff167f8be0079c531659141344cd1fd0a4f28419497f9722a3daafe3b4186f6b6457e060405160405180910390a35050565b8280546200023690620003a3565b90600052602060002090601f0160209004810192826200025a5760008555620002a6565b82601f106200027557805160ff1916838001178555620002a6565b82800160010185558215620002a6579182015b82811115620002a557825182559160200191906001019062000288565b5b509050620002b59190620002b9565b5090565b5b80821115620002d4576000816000905550600101620002ba565b5090565b600080fd5b600073ffffffffffffffffffffffffffffffffffffffff82169050919050565b60006200030a82620002dd565b9050919050565b6200031c81620002fd565b81146200032857600080fd5b50565b6000815190506200033c8162000311565b92915050565b6000602082840312156200035b576200035a620002d8565b5b60006200036b848285016200032b565b91505092915050565b7f4e487b7100000000000000000000000000000000000000000000000000000000600052602260045260246000fd5b60006002820490506001821680620003bc57607f821691505b60208210811415620003d357620003d262000374565b5b50919050565b6144ff80620003e96000396000f3fe6080604052600436106101665760003560e01c8063715018a6116100d1578063a22cb4651161008a578063cc01e75a11610064578063cc01e75a1461051f578063d1af0c7d1461054a578063e985e9c514610575578063f2fde38b146105b257610166565b8063a22cb46514610490578063b88d4fde146104b9578063c87b56dd146104e257610166565b8063715018a6146103ad578063795b4c07146103c45780637a508022146103e05780638456cb59146104235780638da5cb5b1461043a57806395d89b411461046557610166565b806335939c581161012357806335939c581461028b5780633f4ba83a146102c857806342842e0e146102df5780635c975abb146103085780636352211e1461033357806370a082311461037057610166565b806301ffc9a71461016b57806306fdde03146101a8578063081812fc146101d3578063095ea7b31461021057806321670f221461023957806323b872dd14610262575b600080fd5b34801561017757600080fd5b50610192600480360381019061018d9190612cfb565b6105db565b60405161019f9190612d43565b60405180910390f35b3480156101b457600080fd5b506101bd6106bd565b6040516101ca9190612df7565b60405180910390f35b3480156101df57600080fd5b506101fa60048036038101906101f59190612e4f565b61074f565b6040516102079190612ebd565b60405180910390f35b34801561021c57600080fd5b5061023760048036038101906102329190612f04565b610795565b005b34801561024557600080fd5b50610260600480360381019061025b9190612f04565b6108ad565b005b34801561026e57600080fd5b5061028960048036038101906102849190612f44565b6108fe565b005b34801561029757600080fd5b506102b260048036038101906102ad9190612f97565b61095e565b6040516102bf9190613190565b60405180910390f35b3480156102d457600080fd5b506102dd610ceb565b005b3480156102eb57600080fd5b5061030660048036038101906103019190612f44565b610cfd565b005b34801561031457600080fd5b5061031d610d1d565b60405161032a9190612d43565b60405180910390f35b34801561033f57600080fd5b5061035a60048036038101906103559190612e4f565b610d34565b6040516103679190612ebd565b60405180910390f35b34801561037c57600080fd5b5061039760048036038101906103929190612f97565b610de6565b6040516103a491906131c1565b60405180910390f35b3480156103b957600080fd5b506103c2610e9e565b005b6103de60048036038101906103d99190613311565b610eb2565b005b3480156103ec57600080fd5b5061040760048036038101906104029190612e4f565b610eda565b60405161041a979695949392919061342a565b60405180910390f35b34801561042f57600080fd5b5061043861114c565b005b34801561044657600080fd5b5061044f61115e565b60405161045c9190612ebd565b60405180910390f35b34801561047157600080fd5b5061047a611188565b6040516104879190612df7565b60405180910390f35b34801561049c57600080fd5b506104b760048036038101906104b291906134e1565b61121a565b005b3480156104c557600080fd5b506104e060048036038101906104db91906135c2565b611230565b005b3480156104ee57600080fd5b5061050960048036038101906105049190612e4f565b611292565b6040516105169190612df7565b60405180910390f35b34801561052b57600080fd5b506105346113a5565b6040516105419190613190565b60405180910390f35b34801561055657600080fd5b5061055f61166a565b60405161056c91906136a4565b60405180910390f35b34801561058157600080fd5b5061059c600480360381019061059791906136bf565b611690565b6040516105a99190612d43565b60405180910390f35b3480156105be57600080fd5b506105d960048036038101906105d49190612f97565b611724565b005b60007f80ac58cd000000000000000000000000000000000000000000000000000000007bffffffffffffffffffffffffffffffffffffffffffffffffffffffff1916827bffffffffffffffffffffffffffffffffffffffffffffffffffffffff191614806106a657507f5b5e139f000000000000000000000000000000000000000000000000000000007bffffffffffffffffffffffffffffffffffffffffffffffffffffffff1916827bffffffffffffffffffffffffffffffffffffffffffffffffffffffff1916145b806106b657506106b5826117a8565b5b9050919050565b6060600080546106cc9061372e565b80601f01602080910402602001604051908101604052809291908181526020018280546106f89061372e565b80156107455780601f1061071a57610100808354040283529160200191610745565b820191906000526020600020905b81548152906001019060200180831161072857829003601f168201915b5050505050905090565b600061075a82611812565b6004600083815260200190815260200160002060009054906101000a900473ffffffffffffffffffffffffffffffffffffffff169050919050565b60006107a082610d34565b90508073ffffffffffffffffffffffffffffffffffffffff168373ffffffffffffffffffffffffffffffffffffffff161415610811576040517f08c379a0000000000000000000000000000000000000000000000000000000008152600401610808906137d2565b60405180910390fd5b8073ffffffffffffffffffffffffffffffffffffffff1661083061185d565b73ffffffffffffffffffffffffffffffffffffffff16148061085f575061085e8161085961185d565b611690565b5b61089e576040517f08c379a000000000000000000000000000000000000000000000000000000000815260040161089590613864565b60405180910390fd5b6108a88383611865565b505050565b6108fa8282600960009054906101000a900473ffffffffffffffffffffffffffffffffffffffff1673ffffffffffffffffffffffffffffffffffffffff1661191e9092919063ffffffff16565b5050565b61090f61090961185d565b826119a4565b61094e576040517f08c379a0000000000000000000000000000000000000000000000000000000008152600401610945906138f6565b60405180910390fd5b610959838383611a39565b505050565b6060600061096b83610de6565b67ffffffffffffffff811115610984576109836131e6565b5b6040519080825280602002602001820160405280156109bd57816020015b6109aa612baf565b8152602001906001900390816109a25790505b5090506000805b600a80549050811015610ce0578473ffffffffffffffffffffffffffffffffffffffff166109f182610d34565b73ffffffffffffffffffffffffffffffffffffffff161415610ccd57600a8181548110610a2157610a20613916565b5b90600052602060002090600702016040518060e001604052908160008201548152602001600182018054610a549061372e565b80601f0160208091040260200160405190810160405280929190818152602001828054610a809061372e565b8015610acd5780601f10610aa257610100808354040283529160200191610acd565b820191906000526020600020905b815481529060010190602001808311610ab057829003601f168201915b5050505050815260200160028201548152602001600382018054610af09061372e565b80601f0160208091040260200160405190810160405280929190818152602001828054610b1c9061372e565b8015610b695780601f10610b3e57610100808354040283529160200191610b69565b820191906000526020600020905b815481529060010190602001808311610b4c57829003601f168201915b50505050508152602001600482018054610b829061372e565b80601f0160208091040260200160405190810160405280929190818152602001828054610bae9061372e565b8015610bfb5780601f10610bd057610100808354040283529160200191610bfb565b820191906000526020600020905b815481529060010190602001808311610bde57829003601f168201915b50505050508152602001600582018054610c149061372e565b80601f0160208091040260200160405190810160405280929190818152602001828054610c409061372e565b8015610c8d5780601f10610c6257610100808354040283529160200191610c8d565b820191906000526020600020905b815481529060010190602001808311610c7057829003601f168201915b50505050508152602001600682015481525050838381518110610cb357610cb2613916565b5b60200260200101819052508180610cc990613974565b9250505b8080610cd890613974565b9150506109c4565b508192505050919050565b610cf3611ca0565b610cfb611d1e565b565b610d1883838360405180602001604052806000815250611230565b505050565b6000600760009054906101000a900460ff16905090565b6000806002600084815260200190815260200160002060009054906101000a900473ffffffffffffffffffffffffffffffffffffffff169050600073ffffffffffffffffffffffffffffffffffffffff168173ffffffffffffffffffffffffffffffffffffffff161415610ddd576040517f08c379a0000000000000000000000000000000000000000000000000000000008152600401610dd490613a09565b60405180910390fd5b80915050919050565b60008073ffffffffffffffffffffffffffffffffffffffff168273ffffffffffffffffffffffffffffffffffffffff161415610e57576040517f08c379a0000000000000000000000000000000000000000000000000000000008152600401610e4e90613a9b565b60405180910390fd5b600360008373ffffffffffffffffffffffffffffffffffffffff1673ffffffffffffffffffffffffffffffffffffffff168152602001908152602001600020549050919050565b610ea6611ca0565b610eb06000611d81565b565b610eba611e47565b610ec2611ca0565b610ed28686868686866000611e91565b505050505050565b600a8181548110610eea57600080fd5b9060005260206000209060070201600091509050806000015490806001018054610f139061372e565b80601f0160208091040260200160405190810160405280929190818152602001828054610f3f9061372e565b8015610f8c5780601f10610f6157610100808354040283529160200191610f8c565b820191906000526020600020905b815481529060010190602001808311610f6f57829003601f168201915b505050505090806002015490806003018054610fa79061372e565b80601f0160208091040260200160405190810160405280929190818152602001828054610fd39061372e565b80156110205780601f10610ff557610100808354040283529160200191611020565b820191906000526020600020905b81548152906001019060200180831161100357829003601f168201915b5050505050908060040180546110359061372e565b80601f01602080910402602001604051908101604052809291908181526020018280546110619061372e565b80156110ae5780601f10611083576101008083540402835291602001916110ae565b820191906000526020600020905b81548152906001019060200180831161109157829003601f168201915b5050505050908060050180546110c39061372e565b80601f01602080910402602001604051908101604052809291908181526020018280546110ef9061372e565b801561113c5780601f106111115761010080835404028352916020019161113c565b820191906000526020600020905b81548152906001019060200180831161111f57829003601f168201915b5050505050908060060154905087565b611154611ca0565b61115c612009565b565b6000600760019054906101000a900473ffffffffffffffffffffffffffffffffffffffff16905090565b6060600180546111979061372e565b80601f01602080910402602001604051908101604052809291908181526020018280546111c39061372e565b80156112105780601f106111e557610100808354040283529160200191611210565b820191906000526020600020905b8154815290600101906020018083116111f357829003601f168201915b5050505050905090565b61122c61122561185d565b838361206c565b5050565b61124161123b61185d565b836119a4565b611280576040517f08c379a0000000000000000000000000000000000000000000000000000000008152600401611277906138f6565b60405180910390fd5b61128c848484846121d9565b50505050565b606061129d82611812565b60006006600084815260200190815260200160002080546112bd9061372e565b80601f01602080910402602001604051908101604052809291908181526020018280546112e99061372e565b80156113365780601f1061130b57610100808354040283529160200191611336565b820191906000526020600020905b81548152906001019060200180831161131957829003601f168201915b505050505090506000611347612235565b905060008151141561135d5781925050506113a0565b60008251111561139257808260405160200161137a929190613af7565b604051602081830303815290604052925050506113a0565b61139b8461224c565b925050505b919050565b6060600a805480602002602001604051908101604052809291908181526020016000905b8282101561166157838290600052602060002090600702016040518060e0016040529081600082015481526020016001820180546114069061372e565b80601f01602080910402602001604051908101604052809291908181526020018280546114329061372e565b801561147f5780601f106114545761010080835404028352916020019161147f565b820191906000526020600020905b81548152906001019060200180831161146257829003601f168201915b50505050508152602001600282015481526020016003820180546114a29061372e565b80601f01602080910402602001604051908101604052809291908181526020018280546114ce9061372e565b801561151b5780601f106114f05761010080835404028352916020019161151b565b820191906000526020600020905b8154815290600101906020018083116114fe57829003601f168201915b505050505081526020016004820180546115349061372e565b80601f01602080910402602001604051908101604052809291908181526020018280546115609061372e565b80156115ad5780601f10611582576101008083540402835291602001916115ad565b820191906000526020600020905b81548152906001019060200180831161159057829003601f168201915b505050505081526020016005820180546115c69061372e565b80601f01602080910402602001604051908101604052809291908181526020018280546115f29061372e565b801561163f5780601f106116145761010080835404028352916020019161163f565b820191906000526020600020905b81548152906001019060200180831161162257829003601f168201915b50505050508152602001600682015481525050815260200190600101906113c9565b50505050905090565b600960009054906101000a900473ffffffffffffffffffffffffffffffffffffffff1681565b6000600560008473ffffffffffffffffffffffffffffffffffffffff1673ffffffffffffffffffffffffffffffffffffffff16815260200190815260200160002060008373ffffffffffffffffffffffffffffffffffffffff1673ffffffffffffffffffffffffffffffffffffffff16815260200190815260200160002060009054906101000a900460ff16905092915050565b61172c611ca0565b600073ffffffffffffffffffffffffffffffffffffffff168173ffffffffffffffffffffffffffffffffffffffff16141561179c576040517f08c379a000000000000000000000000000000000000000000000000000000000815260040161179390613b8d565b60405180910390fd5b6117a581611d81565b50565b60007f01ffc9a7000000000000000000000000000000000000000000000000000000007bffffffffffffffffffffffffffffffffffffffffffffffffffffffff1916827bffffffffffffffffffffffffffffffffffffffffffffffffffffffff1916149050919050565b61181b816122b4565b61185a576040517f08c379a000000000000000000000000000000000000000000000000000000000815260040161185190613a09565b60405180910390fd5b50565b600033905090565b816004600083815260200190815260200160002060006101000a81548173ffffffffffffffffffffffffffffffffffffffff021916908373ffffffffffffffffffffffffffffffffffffffff160217905550808273ffffffffffffffffffffffffffffffffffffffff166118d883610d34565b73ffffffffffffffffffffffffffffffffffffffff167f8c5be1e5ebec7d5bd14f71427d1e84f3dd0314c0f7b2291e5b200ac8c7c3b92560405160405180910390a45050565b61199f8363a9059cbb60e01b848460405160240161193d929190613bad565b604051602081830303815290604052907bffffffffffffffffffffffffffffffffffffffffffffffffffffffff19166020820180517bffffffffffffffffffffffffffffffffffffffffffffffffffffffff8381831617835250505050612320565b505050565b6000806119b083610d34565b90508073ffffffffffffffffffffffffffffffffffffffff168473ffffffffffffffffffffffffffffffffffffffff1614806119f257506119f18185611690565b5b80611a3057508373ffffffffffffffffffffffffffffffffffffffff16611a188461074f565b73ffffffffffffffffffffffffffffffffffffffff16145b91505092915050565b8273ffffffffffffffffffffffffffffffffffffffff16611a5982610d34565b73ffffffffffffffffffffffffffffffffffffffff1614611aaf576040517f08c379a0000000000000000000000000000000000000000000000000000000008152600401611aa690613c48565b60405180910390fd5b600073ffffffffffffffffffffffffffffffffffffffff168273ffffffffffffffffffffffffffffffffffffffff161415611b1f576040517f08c379a0000000000000000000000000000000000000000000000000000000008152600401611b1690613cda565b60405180910390fd5b611b2a8383836123e7565b611b35600082611865565b6001600360008573ffffffffffffffffffffffffffffffffffffffff1673ffffffffffffffffffffffffffffffffffffffff1681526020019081526020016000206000828254611b859190613cfa565b925050819055506001600360008473ffffffffffffffffffffffffffffffffffffffff1673ffffffffffffffffffffffffffffffffffffffff1681526020019081526020016000206000828254611bdc9190613d2e565b92505081905550816002600083815260200190815260200160002060006101000a81548173ffffffffffffffffffffffffffffffffffffffff021916908373ffffffffffffffffffffffffffffffffffffffff160217905550808273ffffffffffffffffffffffffffffffffffffffff168473ffffffffffffffffffffffffffffffffffffffff167fddf252ad1be2c89b69c2b068fc378daa952ba7f163c4a11628f55a4df523b3ef60405160405180910390a4611c9b8383836123ec565b505050565b611ca861185d565b73ffffffffffffffffffffffffffffffffffffffff16611cc661115e565b73ffffffffffffffffffffffffffffffffffffffff1614611d1c576040517f08c379a0000000000000000000000000000000000000000000000000000000008152600401611d1390613dd0565b60405180910390fd5b565b611d266123f1565b6000600760006101000a81548160ff0219169083151502179055507f5db9ee0a495bf2e6ff9c91a7834c1ba4fdd244a5e8aa4e537bd38aeae4b073aa611d6a61185d565b604051611d779190612ebd565b60405180910390a1565b6000600760019054906101000a900473ffffffffffffffffffffffffffffffffffffffff16905081600760016101000a81548173ffffffffffffffffffffffffffffffffffffffff021916908373ffffffffffffffffffffffffffffffffffffffff1602179055508173ffffffffffffffffffffffffffffffffffffffff168173ffffffffffffffffffffffffffffffffffffffff167f8be0079c531659141344cd1fd0a4f28419497f9722a3daafe3b4186f6b6457e060405160405180910390a35050565b611e4f610d1d565b15611e8f576040517f08c379a0000000000000000000000000000000000000000000000000000000008152600401611e8690613e3c565b60405180910390fd5b565b60006040518060e001604052806008548152602001898152602001878152602001868152602001858152602001848152602001838152509050600a819080600181540180825580915050600190039060005260206000209060070201600090919091909150600082015181600001556020820151816001019080519060200190611f1c929190612bec565b50604082015181600201556060820151816003019080519060200190611f43929190612bec565b506080820151816004019080519060200190611f60929190612bec565b5060a0820151816005019080519060200190611f7d929190612bec565b5060c082015181600601555050611f963360085461243a565b611fa260085488612458565b7fbc2b1f4ec7d74d72b2072ca63c9445d4d7d2f63211da4f09b47e52ec2d861dc5600854898888888888604051611fdf979695949392919061342a565b60405180910390a160086000815480929190611ffa90613974565b91905055505050505050505050565b612011611e47565b6001600760006101000a81548160ff0219169083151502179055507f62e78cea01bee320cd4e420270b5ea74000d11b0c9f74754ebdbfc544b05a25861205561185d565b6040516120629190612ebd565b60405180910390a1565b8173ffffffffffffffffffffffffffffffffffffffff168373ffffffffffffffffffffffffffffffffffffffff1614156120db576040517f08c379a00000000000000000000000000000000000000000000000000000000081526004016120d290613ea8565b60405180910390fd5b80600560008573ffffffffffffffffffffffffffffffffffffffff1673ffffffffffffffffffffffffffffffffffffffff16815260200190815260200160002060008473ffffffffffffffffffffffffffffffffffffffff1673ffffffffffffffffffffffffffffffffffffffff16815260200190815260200160002060006101000a81548160ff0219169083151502179055508173ffffffffffffffffffffffffffffffffffffffff168373ffffffffffffffffffffffffffffffffffffffff167f17307eab39ab6107e8899845ad3d59bd9653f200f220920489ca2b5937696c31836040516121cc9190612d43565b60405180910390a3505050565b6121e4848484611a39565b6121f0848484846124cc565b61222f576040517f08c379a000000000000000000000000000000000000000000000000000000000815260040161222690613f3a565b60405180910390fd5b50505050565b606060405180602001604052806000815250905090565b606061225782611812565b6000612261612235565b9050600081511161228157604051806020016040528060008152506122ac565b8061228b84612663565b60405160200161229c929190613af7565b6040516020818303038152906040525b915050919050565b60008073ffffffffffffffffffffffffffffffffffffffff166002600084815260200190815260200160002060009054906101000a900473ffffffffffffffffffffffffffffffffffffffff1673ffffffffffffffffffffffffffffffffffffffff1614159050919050565b6000612382826040518060400160405280602081526020017f5361666545524332303a206c6f772d6c6576656c2063616c6c206661696c65648152508573ffffffffffffffffffffffffffffffffffffffff166127c49092919063ffffffff16565b90506000815111156123e257808060200190518101906123a29190613f6f565b6123e1576040517f08c379a00000000000000000000000000000000000000000000000000000000081526004016123d89061400e565b60405180910390fd5b5b505050565b505050565b505050565b6123f9610d1d565b612438576040517f08c379a000000000000000000000000000000000000000000000000000000000815260040161242f9061407a565b60405180910390fd5b565b6124548282604051806020016040528060008152506127dc565b5050565b612461826122b4565b6124a0576040517f08c379a00000000000000000000000000000000000000000000000000000000081526004016124979061410c565b60405180910390fd5b806006600084815260200190815260200160002090805190602001906124c7929190612bec565b505050565b60006124ed8473ffffffffffffffffffffffffffffffffffffffff16612837565b15612656578373ffffffffffffffffffffffffffffffffffffffff1663150b7a0261251661185d565b8786866040518563ffffffff1660e01b81526004016125389493929190614181565b602060405180830381600087803b15801561255257600080fd5b505af192505050801561258357506040513d601f19601f8201168201806040525081019061258091906141e2565b60015b612606573d80600081146125b3576040519150601f19603f3d011682016040523d82523d6000602084013e6125b8565b606091505b506000815114156125fe576040517f08c379a00000000000000000000000000000000000000000000000000000000081526004016125f590613f3a565b60405180910390fd5b805181602001fd5b63150b7a0260e01b7bffffffffffffffffffffffffffffffffffffffffffffffffffffffff1916817bffffffffffffffffffffffffffffffffffffffffffffffffffffffff19161491505061265b565b600190505b949350505050565b606060008214156126ab576040518060400160405280600181526020017f300000000000000000000000000000000000000000000000000000000000000081525090506127bf565b600082905060005b600082146126dd5780806126c690613974565b915050600a826126d6919061423e565b91506126b3565b60008167ffffffffffffffff8111156126f9576126f86131e6565b5b6040519080825280601f01601f19166020018201604052801561272b5781602001600182028036833780820191505090505b5090505b600085146127b8576001826127449190613cfa565b9150600a85612753919061426f565b603061275f9190613d2e565b60f81b81838151811061277557612774613916565b5b60200101907effffffffffffffffffffffffffffffffffffffffffffffffffffffffffffff1916908160001a905350600a856127b1919061423e565b945061272f565b8093505050505b919050565b60606127d3848460008561285a565b90509392505050565b6127e6838361296e565b6127f360008484846124cc565b612832576040517f08c379a000000000000000000000000000000000000000000000000000000000815260040161282990613f3a565b60405180910390fd5b505050565b6000808273ffffffffffffffffffffffffffffffffffffffff163b119050919050565b60608247101561289f576040517f08c379a000000000000000000000000000000000000000000000000000000000815260040161289690614312565b60405180910390fd5b6128a885612837565b6128e7576040517f08c379a00000000000000000000000000000000000000000000000000000000081526004016128de9061437e565b60405180910390fd5b6000808673ffffffffffffffffffffffffffffffffffffffff16858760405161291091906143da565b60006040518083038185875af1925050503d806000811461294d576040519150601f19603f3d011682016040523d82523d6000602084013e612952565b606091505b5091509150612962828286612b48565b92505050949350505050565b600073ffffffffffffffffffffffffffffffffffffffff168273ffffffffffffffffffffffffffffffffffffffff1614156129de576040517f08c379a00000000000000000000000000000000000000000000000000000000081526004016129d59061443d565b60405180910390fd5b6129e7816122b4565b15612a27576040517f08c379a0000000000000000000000000000000000000000000000000000000008152600401612a1e906144a9565b60405180910390fd5b612a33600083836123e7565b6001600360008473ffffffffffffffffffffffffffffffffffffffff1673ffffffffffffffffffffffffffffffffffffffff1681526020019081526020016000206000828254612a839190613d2e565b92505081905550816002600083815260200190815260200160002060006101000a81548173ffffffffffffffffffffffffffffffffffffffff021916908373ffffffffffffffffffffffffffffffffffffffff160217905550808273ffffffffffffffffffffffffffffffffffffffff16600073ffffffffffffffffffffffffffffffffffffffff167fddf252ad1be2c89b69c2b068fc378daa952ba7f163c4a11628f55a4df523b3ef60405160405180910390a4612b44600083836123ec565b5050565b60608315612b5857829050612ba8565b600083511115612b6b5782518084602001fd5b816040517f08c379a0000000000000000000000000000000000000000000000000000000008152600401612b9f9190612df7565b60405180910390fd5b9392505050565b6040518060e00160405280600081526020016060815260200160008152602001606081526020016060815260200160608152602001600081525090565b828054612bf89061372e565b90600052602060002090601f016020900481019282612c1a5760008555612c61565b82601f10612c3357805160ff1916838001178555612c61565b82800160010185558215612c61579182015b82811115612c60578251825591602001919060010190612c45565b5b509050612c6e9190612c72565b5090565b5b80821115612c8b576000816000905550600101612c73565b5090565b6000604051905090565b600080fd5b600080fd5b60007fffffffff0000000000000000000000000000000000000000000000000000000082169050919050565b612cd881612ca3565b8114612ce357600080fd5b50565b600081359050612cf581612ccf565b92915050565b600060208284031215612d1157612d10612c99565b5b6000612d1f84828501612ce6565b91505092915050565b60008115159050919050565b612d3d81612d28565b82525050565b6000602082019050612d586000830184612d34565b92915050565b600081519050919050565b600082825260208201905092915050565b60005b83811015612d98578082015181840152602081019050612d7d565b83811115612da7576000848401525b50505050565b6000601f19601f8301169050919050565b6000612dc982612d5e565b612dd38185612d69565b9350612de3818560208601612d7a565b612dec81612dad565b840191505092915050565b60006020820190508181036000830152612e118184612dbe565b905092915050565b6000819050919050565b612e2c81612e19565b8114612e3757600080fd5b50565b600081359050612e4981612e23565b92915050565b600060208284031215612e6557612e64612c99565b5b6000612e7384828501612e3a565b91505092915050565b600073ffffffffffffffffffffffffffffffffffffffff82169050919050565b6000612ea782612e7c565b9050919050565b612eb781612e9c565b82525050565b6000602082019050612ed26000830184612eae565b92915050565b612ee181612e9c565b8114612eec57600080fd5b50565b600081359050612efe81612ed8565b92915050565b60008060408385031215612f1b57612f1a612c99565b5b6000612f2985828601612eef565b9250506020612f3a85828601612e3a565b9150509250929050565b600080600060608486031215612f5d57612f5c612c99565b5b6000612f6b86828701612eef565b9350506020612f7c86828701612eef565b9250506040612f8d86828701612e3a565b9150509250925092565b600060208284031215612fad57612fac612c99565b5b6000612fbb84828501612eef565b91505092915050565b600081519050919050565b600082825260208201905092915050565b6000819050602082019050919050565b612ff981612e19565b82525050565b600082825260208201905092915050565b600061301b82612d5e565b6130258185612fff565b9350613035818560208601612d7a565b61303e81612dad565b840191505092915050565b600060e0830160008301516130616000860182612ff0565b50602083015184820360208601526130798282613010565b915050604083015161308e6040860182612ff0565b50606083015184820360608601526130a68282613010565b915050608083015184820360808601526130c08282613010565b91505060a083015184820360a08601526130da8282613010565b91505060c08301516130ef60c0860182612ff0565b508091505092915050565b60006131068383613049565b905092915050565b6000602082019050919050565b600061312682612fc4565b6131308185612fcf565b93508360208202850161314285612fe0565b8060005b8581101561317e578484038952815161315f85826130fa565b945061316a8361310e565b925060208a01995050600181019050613146565b50829750879550505050505092915050565b600060208201905081810360008301526131aa818461311b565b905092915050565b6131bb81612e19565b82525050565b60006020820190506131d660008301846131b2565b92915050565b600080fd5b600080fd5b7f4e487b7100000000000000000000000000000000000000000000000000000000600052604160045260246000fd5b61321e82612dad565b810181811067ffffffffffffffff8211171561323d5761323c6131e6565b5b80604052505050565b6000613250612c8f565b905061325c8282613215565b919050565b600067ffffffffffffffff82111561327c5761327b6131e6565b5b61328582612dad565b9050602081019050919050565b82818337600083830152505050565b60006132b46132af84613261565b613246565b9050828152602081018484840111156132d0576132cf6131e1565b5b6132db848285613292565b509392505050565b600082601f8301126132f8576132f76131dc565b5b81356133088482602086016132a1565b91505092915050565b60008060008060008060c0878903121561332e5761332d612c99565b5b600087013567ffffffffffffffff81111561334c5761334b612c9e565b5b61335889828a016132e3565b965050602087013567ffffffffffffffff81111561337957613378612c9e565b5b61338589828a016132e3565b955050604061339689828a01612e3a565b945050606087013567ffffffffffffffff8111156133b7576133b6612c9e565b5b6133c389828a016132e3565b935050608087013567ffffffffffffffff8111156133e4576133e3612c9e565b5b6133f089828a016132e3565b92505060a087013567ffffffffffffffff81111561341157613410612c9e565b5b61341d89828a016132e3565b9150509295509295509295565b600060e08201905061343f600083018a6131b2565b81810360208301526134518189612dbe565b905061346060408301886131b2565b81810360608301526134728187612dbe565b905081810360808301526134868186612dbe565b905081810360a083015261349a8185612dbe565b90506134a960c08301846131b2565b98975050505050505050565b6134be81612d28565b81146134c957600080fd5b50565b6000813590506134db816134b5565b92915050565b600080604083850312156134f8576134f7612c99565b5b600061350685828601612eef565b9250506020613517858286016134cc565b9150509250929050565b600067ffffffffffffffff82111561353c5761353b6131e6565b5b61354582612dad565b9050602081019050919050565b600061356561356084613521565b613246565b905082815260208101848484011115613581576135806131e1565b5b61358c848285613292565b509392505050565b600082601f8301126135a9576135a86131dc565b5b81356135b9848260208601613552565b91505092915050565b600080600080608085870312156135dc576135db612c99565b5b60006135ea87828801612eef565b94505060206135fb87828801612eef565b935050604061360c87828801612e3a565b925050606085013567ffffffffffffffff81111561362d5761362c612c9e565b5b61363987828801613594565b91505092959194509250565b6000819050919050565b600061366a61366561366084612e7c565b613645565b612e7c565b9050919050565b600061367c8261364f565b9050919050565b600061368e82613671565b9050919050565b61369e81613683565b82525050565b60006020820190506136b96000830184613695565b92915050565b600080604083850312156136d6576136d5612c99565b5b60006136e485828601612eef565b92505060206136f585828601612eef565b9150509250929050565b7f4e487b7100000000000000000000000000000000000000000000000000000000600052602260045260246000fd5b6000600282049050600182168061374657607f821691505b6020821081141561375a576137596136ff565b5b50919050565b7f4552433732313a20617070726f76616c20746f2063757272656e74206f776e6560008201527f7200000000000000000000000000000000000000000000000000000000000000602082015250565b60006137bc602183612d69565b91506137c782613760565b604082019050919050565b600060208201905081810360008301526137eb816137af565b9050919050565b7f4552433732313a20617070726f76652063616c6c6572206973206e6f7420746f60008201527f6b656e206f776e6572206e6f7220617070726f76656420666f7220616c6c0000602082015250565b600061384e603e83612d69565b9150613859826137f2565b604082019050919050565b6000602082019050818103600083015261387d81613841565b9050919050565b7f4552433732313a2063616c6c6572206973206e6f7420746f6b656e206f776e6560008201527f72206e6f7220617070726f766564000000000000000000000000000000000000602082015250565b60006138e0602e83612d69565b91506138eb82613884565b604082019050919050565b6000602082019050818103600083015261390f816138d3565b9050919050565b7f4e487b7100000000000000000000000000000000000000000000000000000000600052603260045260246000fd5b7f4e487b7100000000000000000000000000000000000000000000000000000000600052601160045260246000fd5b600061397f82612e19565b91507fffffffffffffffffffffffffffffffffffffffffffffffffffffffffffffffff8214156139b2576139b1613945565b5b600182019050919050565b7f4552433732313a20696e76616c696420746f6b656e2049440000000000000000600082015250565b60006139f3601883612d69565b91506139fe826139bd565b602082019050919050565b60006020820190508181036000830152613a22816139e6565b9050919050565b7f4552433732313a2061646472657373207a65726f206973206e6f74206120766160008201527f6c6964206f776e65720000000000000000000000000000000000000000000000602082015250565b6000613a85602983612d69565b9150613a9082613a29565b604082019050919050565b60006020820190508181036000830152613ab481613a78565b9050919050565b600081905092915050565b6000613ad182612d5e565b613adb8185613abb565b9350613aeb818560208601612d7a565b80840191505092915050565b6000613b038285613ac6565b9150613b0f8284613ac6565b91508190509392505050565b7f4f776e61626c653a206e6577206f776e657220697320746865207a65726f206160008201527f6464726573730000000000000000000000000000000000000000000000000000602082015250565b6000613b77602683612d69565b9150613b8282613b1b565b604082019050919050565b60006020820190508181036000830152613ba681613b6a565b9050919050565b6000604082019050613bc26000830185612eae565b613bcf60208301846131b2565b9392505050565b7f4552433732313a207472616e736665722066726f6d20696e636f72726563742060008201527f6f776e6572000000000000000000000000000000000000000000000000000000602082015250565b6000613c32602583612d69565b9150613c3d82613bd6565b604082019050919050565b60006020820190508181036000830152613c6181613c25565b9050919050565b7f4552433732313a207472616e7366657220746f20746865207a65726f2061646460008201527f7265737300000000000000000000000000000000000000000000000000000000602082015250565b6000613cc4602483612d69565b9150613ccf82613c68565b604082019050919050565b60006020820190508181036000830152613cf381613cb7565b9050919050565b6000613d0582612e19565b9150613d1083612e19565b925082821015613d2357613d22613945565b5b828203905092915050565b6000613d3982612e19565b9150613d4483612e19565b9250827fffffffffffffffffffffffffffffffffffffffffffffffffffffffffffffffff03821115613d7957613d78613945565b5b828201905092915050565b7f4f776e61626c653a2063616c6c6572206973206e6f7420746865206f776e6572600082015250565b6000613dba602083612d69565b9150613dc582613d84565b602082019050919050565b60006020820190508181036000830152613de981613dad565b9050919050565b7f5061757361626c653a2070617573656400000000000000000000000000000000600082015250565b6000613e26601083612d69565b9150613e3182613df0565b602082019050919050565b60006020820190508181036000830152613e5581613e19565b9050919050565b7f4552433732313a20617070726f766520746f2063616c6c657200000000000000600082015250565b6000613e92601983612d69565b9150613e9d82613e5c565b602082019050919050565b60006020820190508181036000830152613ec181613e85565b9050919050565b7f4552433732313a207472616e7366657220746f206e6f6e20455243373231526560008201527f63656976657220696d706c656d656e7465720000000000000000000000000000602082015250565b6000613f24603283612d69565b9150613f2f82613ec8565b604082019050919050565b60006020820190508181036000830152613f5381613f17565b9050919050565b600081519050613f69816134b5565b92915050565b600060208284031215613f8557613f84612c99565b5b6000613f9384828501613f5a565b91505092915050565b7f5361666545524332303a204552433230206f7065726174696f6e20646964206e60008201527f6f74207375636365656400000000000000000000000000000000000000000000602082015250565b6000613ff8602a83612d69565b915061400382613f9c565b604082019050919050565b6000602082019050818103600083015261402781613feb565b9050919050565b7f5061757361626c653a206e6f7420706175736564000000000000000000000000600082015250565b6000614064601483612d69565b915061406f8261402e565b602082019050919050565b6000602082019050818103600083015261409381614057565b9050919050565b7f45524337323155524953746f726167653a2055524920736574206f66206e6f6e60008201527f6578697374656e7420746f6b656e000000000000000000000000000000000000602082015250565b60006140f6602e83612d69565b91506141018261409a565b604082019050919050565b60006020820190508181036000830152614125816140e9565b9050919050565b600081519050919050565b600082825260208201905092915050565b60006141538261412c565b61415d8185614137565b935061416d818560208601612d7a565b61417681612dad565b840191505092915050565b60006080820190506141966000830187612eae565b6141a36020830186612eae565b6141b060408301856131b2565b81810360608301526141c28184614148565b905095945050505050565b6000815190506141dc81612ccf565b92915050565b6000602082840312156141f8576141f7612c99565b5b6000614206848285016141cd565b91505092915050565b7f4e487b7100000000000000000000000000000000000000000000000000000000600052601260045260246000fd5b600061424982612e19565b915061425483612e19565b9250826142645761426361420f565b5b828204905092915050565b600061427a82612e19565b915061428583612e19565b9250826142955761429461420f565b5b828206905092915050565b7f416464726573733a20696e73756666696369656e742062616c616e636520666f60008201527f722063616c6c0000000000000000000000000000000000000000000000000000602082015250565b60006142fc602683612d69565b9150614307826142a0565b604082019050919050565b6000602082019050818103600083015261432b816142ef565b9050919050565b7f416464726573733a2063616c6c20746f206e6f6e2d636f6e7472616374000000600082015250565b6000614368601d83612d69565b915061437382614332565b602082019050919050565b600060208201905081810360008301526143978161435b565b9050919050565b600081905092915050565b60006143b48261412c565b6143be818561439e565b93506143ce818560208601612d7a565b80840191505092915050565b60006143e682846143a9565b915081905092915050565b7f4552433732313a206d696e7420746f20746865207a65726f2061646472657373600082015250565b6000614427602083612d69565b9150614432826143f1565b602082019050919050565b600060208201905081810360008301526144568161441a565b9050919050565b7f4552433732313a20746f6b656e20616c7265616479206d696e74656400000000600082015250565b6000614493601c83612d69565b915061449e8261445d565b602082019050919050565b600060208201905081810360008301526144c281614486565b905091905056fea264697066735822122091ba4c96a2e807f165a1f057def9dbf675528c4e42e82827ee8b2d972f0c2e9c64736f6c63430008090033",
  "linkReferences": {},
  "deployedLinkReferences": {}
}